{
	"contracts/polygon/flashswap.sol": {
		"flashswap": {
			"abi": [
				{
					"anonymous": false,
					"inputs": [
						{
							"indexed": false,
							"internalType": "string",
							"name": "message",
							"type": "string"
						},
						{
							"indexed": false,
							"internalType": "uint256",
							"name": "val",
							"type": "uint256"
						}
					],
					"name": "Log",
					"type": "event"
				},
				{
					"inputs": [
						{
							"internalType": "address",
							"name": "_tokenBorrow",
							"type": "address"
						},
						{
							"internalType": "uint256",
							"name": "_amount",
							"type": "uint256"
						}
					],
					"name": "testFlashSwap",
					"outputs": [],
					"stateMutability": "nonpayable",
					"type": "function"
				},
				{
					"inputs": [
						{
							"internalType": "address",
							"name": "_sender",
							"type": "address"
						},
						{
							"internalType": "uint256",
							"name": "_amount0",
							"type": "uint256"
						},
						{
							"internalType": "uint256",
							"name": "_amount1",
							"type": "uint256"
						},
						{
							"internalType": "bytes",
							"name": "_data",
							"type": "bytes"
						}
					],
					"name": "uniswapV2Call",
					"outputs": [],
					"stateMutability": "nonpayable",
					"type": "function"
				}
			],
			"devdoc": {
				"kind": "dev",
				"methods": {},
				"version": 1
			},
			"evm": {
				"assembly": "    /* \"contracts/polygon/flashswap.sol\":273:2098  contract flashswap is IUniswapV2Callee {... */\n  mstore(0x40, 0x80)\n  callvalue\n  dup1\n  iszero\n  tag_1\n  jumpi\n  0x00\n  dup1\n  revert\ntag_1:\n  pop\n  dataSize(sub_0)\n  dup1\n  dataOffset(sub_0)\n  0x00\n  codecopy\n  0x00\n  return\nstop\n\nsub_0: assembly {\n        /* \"contracts/polygon/flashswap.sol\":273:2098  contract flashswap is IUniswapV2Callee {... */\n      mstore(0x40, 0x80)\n      callvalue\n      dup1\n      iszero\n      tag_1\n      jumpi\n      0x00\n      dup1\n      revert\n    tag_1:\n      pop\n      jumpi(tag_2, lt(calldatasize, 0x04))\n      shr(0xe0, calldataload(0x00))\n      dup1\n      0x10d1e85c\n      eq\n      tag_3\n      jumpi\n      dup1\n      0x293ccb50\n      eq\n      tag_4\n      jumpi\n    tag_2:\n      0x00\n      dup1\n      revert\n        /* \"contracts/polygon/flashswap.sol\":1251:2096  function uniswapV2Call(... */\n    tag_3:\n      tag_5\n      0x04\n      dup1\n      calldatasize\n      sub\n      dup2\n      add\n      swap1\n      tag_6\n      swap2\n      swap1\n      tag_7\n      jump\t// in\n    tag_6:\n      tag_8\n      jump\t// in\n    tag_5:\n      stop\n        /* \"contracts/polygon/flashswap.sol\":611:1218  function testFlashSwap(address _tokenBorrow, uint _amount) external {... */\n    tag_4:\n      tag_9\n      0x04\n      dup1\n      calldatasize\n      sub\n      dup2\n      add\n      swap1\n      tag_10\n      swap2\n      swap1\n      tag_11\n      jump\t// in\n    tag_10:\n      tag_12\n      jump\t// in\n    tag_9:\n      stop\n        /* \"contracts/polygon/flashswap.sol\":1251:2096  function uniswapV2Call(... */\n    tag_8:\n        /* \"contracts/polygon/flashswap.sol\":1387:1401  address token0 */\n      0x00\n        /* \"contracts/polygon/flashswap.sol\":1419:1429  msg.sender */\n      caller\n        /* \"contracts/polygon/flashswap.sol\":1404:1437  IUniswapV2Pair(msg.sender).token0 */\n      0xffffffffffffffffffffffffffffffffffffffff\n      and\n      0x0dfe1681\n        /* \"contracts/polygon/flashswap.sol\":1404:1439  IUniswapV2Pair(msg.sender).token0() */\n      mload(0x40)\n      dup2\n      0xffffffff\n      and\n      0xe0\n      shl\n      dup2\n      mstore\n      0x04\n      add\n      0x20\n      mload(0x40)\n      dup1\n      dup4\n      sub\n      dup2\n      dup7\n      gas\n      staticcall\n      iszero\n      dup1\n      iszero\n      tag_15\n      jumpi\n      returndatasize\n      0x00\n      dup1\n      returndatacopy\n      revert(0x00, returndatasize)\n    tag_15:\n      pop\n      pop\n      pop\n      pop\n      mload(0x40)\n      returndatasize\n      not(0x1f)\n      0x1f\n      dup3\n      add\n      and\n      dup3\n      add\n      dup1\n      0x40\n      mstore\n      pop\n      dup2\n      add\n      swap1\n      tag_16\n      swap2\n      swap1\n      tag_17\n      jump\t// in\n    tag_16:\n        /* \"contracts/polygon/flashswap.sol\":1387:1439  address token0 = IUniswapV2Pair(msg.sender).token0() */\n      swap1\n      pop\n        /* \"contracts/polygon/flashswap.sol\":1445:1459  address token1 */\n      0x00\n        /* \"contracts/polygon/flashswap.sol\":1477:1487  msg.sender */\n      caller\n        /* \"contracts/polygon/flashswap.sol\":1462:1495  IUniswapV2Pair(msg.sender).token1 */\n      0xffffffffffffffffffffffffffffffffffffffff\n      and\n      0xd21220a7\n        /* \"contracts/polygon/flashswap.sol\":1462:1497  IUniswapV2Pair(msg.sender).token1() */\n      mload(0x40)\n      dup2\n      0xffffffff\n      and\n      0xe0\n      shl\n      dup2\n      mstore\n      0x04\n      add\n      0x20\n      mload(0x40)\n      dup1\n      dup4\n      sub\n      dup2\n      dup7\n      gas\n      staticcall\n      iszero\n      dup1\n      iszero\n      tag_19\n      jumpi\n      returndatasize\n      0x00\n      dup1\n      returndatacopy\n      revert(0x00, returndatasize)\n    tag_19:\n      pop\n      pop\n      pop\n      pop\n      mload(0x40)\n      returndatasize\n      not(0x1f)\n      0x1f\n      dup3\n      add\n      and\n      dup3\n      add\n      dup1\n      0x40\n      mstore\n      pop\n      dup2\n      add\n      swap1\n      tag_20\n      swap2\n      swap1\n      tag_17\n      jump\t// in\n    tag_20:\n        /* \"contracts/polygon/flashswap.sol\":1445:1497  address token1 = IUniswapV2Pair(msg.sender).token1() */\n      swap1\n      pop\n        /* \"contracts/polygon/flashswap.sol\":1503:1515  address pair */\n      0x00\n        /* \"contracts/polygon/flashswap.sol\":524:566  0x5757371414417b8C6CAad45bAeF941aBc7d3Ab32 */\n      0x5757371414417b8c6caad45baef941abc7d3ab32\n        /* \"contracts/polygon/flashswap.sol\":1518:1552  IUniswapV2Factory(FACTORY).getPair */\n      0xffffffffffffffffffffffffffffffffffffffff\n      and\n      0xe6a43905\n        /* \"contracts/polygon/flashswap.sol\":1553:1559  token0 */\n      dup5\n        /* \"contracts/polygon/flashswap.sol\":1561:1567  token1 */\n      dup5\n        /* \"contracts/polygon/flashswap.sol\":1518:1568  IUniswapV2Factory(FACTORY).getPair(token0, token1) */\n      mload(0x40)\n      dup4\n      0xffffffff\n      and\n      0xe0\n      shl\n      dup2\n      mstore\n      0x04\n      add\n      tag_21\n      swap3\n      swap2\n      swap1\n      tag_22\n      jump\t// in\n    tag_21:\n      0x20\n      mload(0x40)\n      dup1\n      dup4\n      sub\n      dup2\n      dup7\n      gas\n      staticcall\n      iszero\n      dup1\n      iszero\n      tag_24\n      jumpi\n      returndatasize\n      0x00\n      dup1\n      returndatacopy\n      revert(0x00, returndatasize)\n    tag_24:\n      pop\n      pop\n      pop\n      pop\n      mload(0x40)\n      returndatasize\n      not(0x1f)\n      0x1f\n      dup3\n      add\n      and\n      dup3\n      add\n      dup1\n      0x40\n      mstore\n      pop\n      dup2\n      add\n      swap1\n      tag_25\n      swap2\n      swap1\n      tag_17\n      jump\t// in\n    tag_25:\n        /* \"contracts/polygon/flashswap.sol\":1503:1568  address pair = IUniswapV2Factory(FACTORY).getPair(token0, token1) */\n      swap1\n      pop\n        /* \"contracts/polygon/flashswap.sol\":1596:1600  pair */\n      dup1\n        /* \"contracts/polygon/flashswap.sol\":1582:1600  msg.sender == pair */\n      0xffffffffffffffffffffffffffffffffffffffff\n      and\n        /* \"contracts/polygon/flashswap.sol\":1582:1592  msg.sender */\n      caller\n        /* \"contracts/polygon/flashswap.sol\":1582:1600  msg.sender == pair */\n      0xffffffffffffffffffffffffffffffffffffffff\n      and\n      eq\n        /* \"contracts/polygon/flashswap.sol\":1574:1610  require(msg.sender == pair, \"!pair\") */\n      tag_26\n      jumpi\n      mload(0x40)\n      0x08c379a000000000000000000000000000000000000000000000000000000000\n      dup2\n      mstore\n      0x04\n      add\n      tag_27\n      swap1\n      tag_28\n      jump\t// in\n    tag_27:\n      mload(0x40)\n      dup1\n      swap2\n      sub\n      swap1\n      revert\n    tag_26:\n        /* \"contracts/polygon/flashswap.sol\":1643:1647  this */\n      address\n        /* \"contracts/polygon/flashswap.sol\":1624:1648  _sender == address(this) */\n      0xffffffffffffffffffffffffffffffffffffffff\n      and\n        /* \"contracts/polygon/flashswap.sol\":1624:1631  _sender */\n      dup9\n        /* \"contracts/polygon/flashswap.sol\":1624:1648  _sender == address(this) */\n      0xffffffffffffffffffffffffffffffffffffffff\n      and\n      eq\n        /* \"contracts/polygon/flashswap.sol\":1616:1660  require(_sender == address(this), \"!sender\") */\n      tag_29\n      jumpi\n      mload(0x40)\n      0x08c379a000000000000000000000000000000000000000000000000000000000\n      dup2\n      mstore\n      0x04\n      add\n      tag_30\n      swap1\n      tag_31\n      jump\t// in\n    tag_30:\n      mload(0x40)\n      dup1\n      swap2\n      sub\n      swap1\n      revert\n    tag_29:\n        /* \"contracts/polygon/flashswap.sol\":1668:1687  address tokenBorrow */\n      0x00\n        /* \"contracts/polygon/flashswap.sol\":1689:1700  uint amount */\n      dup1\n        /* \"contracts/polygon/flashswap.sol\":1715:1720  _data */\n      dup7\n      dup7\n        /* \"contracts/polygon/flashswap.sol\":1704:1738  abi.decode(_data, (address, uint)) */\n      dup2\n      add\n      swap1\n      tag_32\n      swap2\n      swap1\n      tag_33\n      jump\t// in\n    tag_32:\n        /* \"contracts/polygon/flashswap.sol\":1667:1738  (address tokenBorrow, uint amount) = abi.decode(_data, (address, uint)) */\n      swap2\n      pop\n      swap2\n      pop\n        /* \"contracts/polygon/flashswap.sol\":1763:1771  uint fee */\n      0x00\n        /* \"contracts/polygon/flashswap.sol\":1797:1798  1 */\n      0x01\n        /* \"contracts/polygon/flashswap.sol\":1790:1793  997 */\n      0x03e5\n        /* \"contracts/polygon/flashswap.sol\":1785:1786  3 */\n      0x03\n        /* \"contracts/polygon/flashswap.sol\":1776:1782  amount */\n      dup5\n        /* \"contracts/polygon/flashswap.sol\":1776:1786  amount * 3 */\n      tag_34\n      swap2\n      swap1\n      tag_35\n      jump\t// in\n    tag_34:\n        /* \"contracts/polygon/flashswap.sol\":1775:1793  (amount * 3) / 997 */\n      tag_36\n      swap2\n      swap1\n      tag_37\n      jump\t// in\n    tag_36:\n        /* \"contracts/polygon/flashswap.sol\":1774:1798  ((amount * 3) / 997) + 1 */\n      tag_38\n      swap2\n      swap1\n      tag_39\n      jump\t// in\n    tag_38:\n        /* \"contracts/polygon/flashswap.sol\":1763:1798  uint fee = ((amount * 3) / 997) + 1 */\n      swap1\n      pop\n        /* \"contracts/polygon/flashswap.sol\":1804:1822  uint amountToRepay */\n      0x00\n        /* \"contracts/polygon/flashswap.sol\":1834:1837  fee */\n      dup2\n        /* \"contracts/polygon/flashswap.sol\":1825:1831  amount */\n      dup4\n        /* \"contracts/polygon/flashswap.sol\":1825:1837  amount + fee */\n      tag_40\n      swap2\n      swap1\n      tag_39\n      jump\t// in\n    tag_40:\n        /* \"contracts/polygon/flashswap.sol\":1804:1837  uint amountToRepay = amount + fee */\n      swap1\n      pop\n        /* \"contracts/polygon/flashswap.sol\":1870:1891  Log(\"amount\", amount) */\n      0xdd970dd9b5bfe707922155b058a407655cb18288b807e2216442bca8ad83d6b5\n        /* \"contracts/polygon/flashswap.sol\":1884:1890  amount */\n      dup4\n        /* \"contracts/polygon/flashswap.sol\":1870:1891  Log(\"amount\", amount) */\n      mload(0x40)\n      tag_41\n      swap2\n      swap1\n      tag_42\n      jump\t// in\n    tag_41:\n      mload(0x40)\n      dup1\n      swap2\n      sub\n      swap1\n      log1\n        /* \"contracts/polygon/flashswap.sol\":1902:1926  Log(\"amount0\", _amount0) */\n      0xdd970dd9b5bfe707922155b058a407655cb18288b807e2216442bca8ad83d6b5\n        /* \"contracts/polygon/flashswap.sol\":1917:1925  _amount0 */\n      dup12\n        /* \"contracts/polygon/flashswap.sol\":1902:1926  Log(\"amount0\", _amount0) */\n      mload(0x40)\n      tag_43\n      swap2\n      swap1\n      tag_44\n      jump\t// in\n    tag_43:\n      mload(0x40)\n      dup1\n      swap2\n      sub\n      swap1\n      log1\n        /* \"contracts/polygon/flashswap.sol\":1937:1961  Log(\"amount1\", _amount1) */\n      0xdd970dd9b5bfe707922155b058a407655cb18288b807e2216442bca8ad83d6b5\n        /* \"contracts/polygon/flashswap.sol\":1952:1960  _amount1 */\n      dup11\n        /* \"contracts/polygon/flashswap.sol\":1937:1961  Log(\"amount1\", _amount1) */\n      mload(0x40)\n      tag_45\n      swap2\n      swap1\n      tag_46\n      jump\t// in\n    tag_45:\n      mload(0x40)\n      dup1\n      swap2\n      sub\n      swap1\n      log1\n        /* \"contracts/polygon/flashswap.sol\":1972:1987  Log(\"fee\", fee) */\n      0xdd970dd9b5bfe707922155b058a407655cb18288b807e2216442bca8ad83d6b5\n        /* \"contracts/polygon/flashswap.sol\":1983:1986  fee */\n      dup3\n        /* \"contracts/polygon/flashswap.sol\":1972:1987  Log(\"fee\", fee) */\n      mload(0x40)\n      tag_47\n      swap2\n      swap1\n      tag_48\n      jump\t// in\n    tag_47:\n      mload(0x40)\n      dup1\n      swap2\n      sub\n      swap1\n      log1\n        /* \"contracts/polygon/flashswap.sol\":1998:2035  Log(\"amount to repay\", amountToRepay) */\n      0xdd970dd9b5bfe707922155b058a407655cb18288b807e2216442bca8ad83d6b5\n        /* \"contracts/polygon/flashswap.sol\":2021:2034  amountToRepay */\n      dup2\n        /* \"contracts/polygon/flashswap.sol\":1998:2035  Log(\"amount to repay\", amountToRepay) */\n      mload(0x40)\n      tag_49\n      swap2\n      swap1\n      tag_50\n      jump\t// in\n    tag_49:\n      mload(0x40)\n      dup1\n      swap2\n      sub\n      swap1\n      log1\n        /* \"contracts/polygon/flashswap.sol\":2049:2060  tokenBorrow */\n      dup4\n        /* \"contracts/polygon/flashswap.sol\":2042:2070  IERC20(tokenBorrow).transfer */\n      0xffffffffffffffffffffffffffffffffffffffff\n      and\n      0xa9059cbb\n        /* \"contracts/polygon/flashswap.sol\":2071:2075  pair */\n      dup7\n        /* \"contracts/polygon/flashswap.sol\":2077:2090  amountToRepay */\n      dup4\n        /* \"contracts/polygon/flashswap.sol\":2042:2091  IERC20(tokenBorrow).transfer(pair, amountToRepay) */\n      mload(0x40)\n      dup4\n      0xffffffff\n      and\n      0xe0\n      shl\n      dup2\n      mstore\n      0x04\n      add\n      tag_51\n      swap3\n      swap2\n      swap1\n      tag_52\n      jump\t// in\n    tag_51:\n      0x20\n      mload(0x40)\n      dup1\n      dup4\n      sub\n      dup2\n      0x00\n      dup8\n      gas\n      call\n      iszero\n      dup1\n      iszero\n      tag_54\n      jumpi\n      returndatasize\n      0x00\n      dup1\n      returndatacopy\n      revert(0x00, returndatasize)\n    tag_54:\n      pop\n      pop\n      pop\n      pop\n      mload(0x40)\n      returndatasize\n      not(0x1f)\n      0x1f\n      dup3\n      add\n      and\n      dup3\n      add\n      dup1\n      0x40\n      mstore\n      pop\n      dup2\n      add\n      swap1\n      tag_55\n      swap2\n      swap1\n      tag_56\n      jump\t// in\n    tag_55:\n      pop\n        /* \"contracts/polygon/flashswap.sol\":1381:2096  {... */\n      pop\n      pop\n      pop\n      pop\n      pop\n      pop\n      pop\n        /* \"contracts/polygon/flashswap.sol\":1251:2096  function uniswapV2Call(... */\n      pop\n      pop\n      pop\n      pop\n      pop\n      jump\t// out\n        /* \"contracts/polygon/flashswap.sol\":611:1218  function testFlashSwap(address _tokenBorrow, uint _amount) external {... */\n    tag_12:\n        /* \"contracts/polygon/flashswap.sol\":685:697  address pair */\n      0x00\n        /* \"contracts/polygon/flashswap.sol\":524:566  0x5757371414417b8C6CAad45bAeF941aBc7d3Ab32 */\n      0x5757371414417b8c6caad45baef941abc7d3ab32\n        /* \"contracts/polygon/flashswap.sol\":700:734  IUniswapV2Factory(FACTORY).getPair */\n      0xffffffffffffffffffffffffffffffffffffffff\n      and\n      0xe6a43905\n        /* \"contracts/polygon/flashswap.sol\":735:747  _tokenBorrow */\n      dup5\n        /* \"contracts/polygon/flashswap.sol\":419:461  0x0d500B1d8E8eF31E21C99d1Db9A6444d3ADf1270 */\n      0x0d500b1d8e8ef31e21c99d1db9a6444d3adf1270\n        /* \"contracts/polygon/flashswap.sol\":700:754  IUniswapV2Factory(FACTORY).getPair(_tokenBorrow, WETH) */\n      mload(0x40)\n      dup4\n      0xffffffff\n      and\n      0xe0\n      shl\n      dup2\n      mstore\n      0x04\n      add\n      tag_58\n      swap3\n      swap2\n      swap1\n      tag_22\n      jump\t// in\n    tag_58:\n      0x20\n      mload(0x40)\n      dup1\n      dup4\n      sub\n      dup2\n      dup7\n      gas\n      staticcall\n      iszero\n      dup1\n      iszero\n      tag_60\n      jumpi\n      returndatasize\n      0x00\n      dup1\n      returndatacopy\n      revert(0x00, returndatasize)\n    tag_60:\n      pop\n      pop\n      pop\n      pop\n      mload(0x40)\n      returndatasize\n      not(0x1f)\n      0x1f\n      dup3\n      add\n      and\n      dup3\n      add\n      dup1\n      0x40\n      mstore\n      pop\n      dup2\n      add\n      swap1\n      tag_61\n      swap2\n      swap1\n      tag_17\n      jump\t// in\n    tag_61:\n        /* \"contracts/polygon/flashswap.sol\":685:754  address pair = IUniswapV2Factory(FACTORY).getPair(_tokenBorrow, WETH) */\n      swap1\n      pop\n        /* \"contracts/polygon/flashswap.sol\":784:785  0 */\n      0x00\n        /* \"contracts/polygon/flashswap.sol\":768:786  pair != address(0) */\n      0xffffffffffffffffffffffffffffffffffffffff\n      and\n        /* \"contracts/polygon/flashswap.sol\":768:772  pair */\n      dup2\n        /* \"contracts/polygon/flashswap.sol\":768:786  pair != address(0) */\n      0xffffffffffffffffffffffffffffffffffffffff\n      and\n      sub\n        /* \"contracts/polygon/flashswap.sol\":760:796  require(pair != address(0), \"!pair\") */\n      tag_62\n      jumpi\n      mload(0x40)\n      0x08c379a000000000000000000000000000000000000000000000000000000000\n      dup2\n      mstore\n      0x04\n      add\n      tag_63\n      swap1\n      tag_28\n      jump\t// in\n    tag_63:\n      mload(0x40)\n      dup1\n      swap2\n      sub\n      swap1\n      revert\n    tag_62:\n        /* \"contracts/polygon/flashswap.sol\":803:817  address token0 */\n      0x00\n        /* \"contracts/polygon/flashswap.sol\":835:839  pair */\n      dup2\n        /* \"contracts/polygon/flashswap.sol\":820:847  IUniswapV2Pair(pair).token0 */\n      0xffffffffffffffffffffffffffffffffffffffff\n      and\n      0x0dfe1681\n        /* \"contracts/polygon/flashswap.sol\":820:849  IUniswapV2Pair(pair).token0() */\n      mload(0x40)\n      dup2\n      0xffffffff\n      and\n      0xe0\n      shl\n      dup2\n      mstore\n      0x04\n      add\n      0x20\n      mload(0x40)\n      dup1\n      dup4\n      sub\n      dup2\n      dup7\n      gas\n      staticcall\n      iszero\n      dup1\n      iszero\n      tag_65\n      jumpi\n      returndatasize\n      0x00\n      dup1\n      returndatacopy\n      revert(0x00, returndatasize)\n    tag_65:\n      pop\n      pop\n      pop\n      pop\n      mload(0x40)\n      returndatasize\n      not(0x1f)\n      0x1f\n      dup3\n      add\n      and\n      dup3\n      add\n      dup1\n      0x40\n      mstore\n      pop\n      dup2\n      add\n      swap1\n      tag_66\n      swap2\n      swap1\n      tag_17\n      jump\t// in\n    tag_66:\n        /* \"contracts/polygon/flashswap.sol\":803:849  address token0 = IUniswapV2Pair(pair).token0() */\n      swap1\n      pop\n        /* \"contracts/polygon/flashswap.sol\":855:869  address token1 */\n      0x00\n        /* \"contracts/polygon/flashswap.sol\":887:891  pair */\n      dup3\n        /* \"contracts/polygon/flashswap.sol\":872:899  IUniswapV2Pair(pair).token1 */\n      0xffffffffffffffffffffffffffffffffffffffff\n      and\n      0xd21220a7\n        /* \"contracts/polygon/flashswap.sol\":872:901  IUniswapV2Pair(pair).token1() */\n      mload(0x40)\n      dup2\n      0xffffffff\n      and\n      0xe0\n      shl\n      dup2\n      mstore\n      0x04\n      add\n      0x20\n      mload(0x40)\n      dup1\n      dup4\n      sub\n      dup2\n      dup7\n      gas\n      staticcall\n      iszero\n      dup1\n      iszero\n      tag_68\n      jumpi\n      returndatasize\n      0x00\n      dup1\n      returndatacopy\n      revert(0x00, returndatasize)\n    tag_68:\n      pop\n      pop\n      pop\n      pop\n      mload(0x40)\n      returndatasize\n      not(0x1f)\n      0x1f\n      dup3\n      add\n      and\n      dup3\n      add\n      dup1\n      0x40\n      mstore\n      pop\n      dup2\n      add\n      swap1\n      tag_69\n      swap2\n      swap1\n      tag_17\n      jump\t// in\n    tag_69:\n        /* \"contracts/polygon/flashswap.sol\":855:901  address token1 = IUniswapV2Pair(pair).token1() */\n      swap1\n      pop\n        /* \"contracts/polygon/flashswap.sol\":907:922  uint amount0Out */\n      0x00\n        /* \"contracts/polygon/flashswap.sol\":941:947  token0 */\n      dup3\n        /* \"contracts/polygon/flashswap.sol\":925:947  _tokenBorrow == token0 */\n      0xffffffffffffffffffffffffffffffffffffffff\n      and\n        /* \"contracts/polygon/flashswap.sol\":925:937  _tokenBorrow */\n      dup7\n        /* \"contracts/polygon/flashswap.sol\":925:947  _tokenBorrow == token0 */\n      0xffffffffffffffffffffffffffffffffffffffff\n      and\n      eq\n        /* \"contracts/polygon/flashswap.sol\":925:961  _tokenBorrow == token0 ? _amount : 0 */\n      tag_70\n      jumpi\n        /* \"contracts/polygon/flashswap.sol\":960:961  0 */\n      0x00\n        /* \"contracts/polygon/flashswap.sol\":925:961  _tokenBorrow == token0 ? _amount : 0 */\n      jump(tag_71)\n    tag_70:\n        /* \"contracts/polygon/flashswap.sol\":950:957  _amount */\n      dup5\n        /* \"contracts/polygon/flashswap.sol\":925:961  _tokenBorrow == token0 ? _amount : 0 */\n    tag_71:\n        /* \"contracts/polygon/flashswap.sol\":907:961  uint amount0Out = _tokenBorrow == token0 ? _amount : 0 */\n      swap1\n      pop\n        /* \"contracts/polygon/flashswap.sol\":967:982  uint amount1Out */\n      0x00\n        /* \"contracts/polygon/flashswap.sol\":1001:1007  token1 */\n      dup3\n        /* \"contracts/polygon/flashswap.sol\":985:1007  _tokenBorrow == token1 */\n      0xffffffffffffffffffffffffffffffffffffffff\n      and\n        /* \"contracts/polygon/flashswap.sol\":985:997  _tokenBorrow */\n      dup8\n        /* \"contracts/polygon/flashswap.sol\":985:1007  _tokenBorrow == token1 */\n      0xffffffffffffffffffffffffffffffffffffffff\n      and\n      eq\n        /* \"contracts/polygon/flashswap.sol\":985:1021  _tokenBorrow == token1 ? _amount : 0 */\n      tag_72\n      jumpi\n        /* \"contracts/polygon/flashswap.sol\":1020:1021  0 */\n      0x00\n        /* \"contracts/polygon/flashswap.sol\":985:1021  _tokenBorrow == token1 ? _amount : 0 */\n      jump(tag_73)\n    tag_72:\n        /* \"contracts/polygon/flashswap.sol\":1010:1017  _amount */\n      dup6\n        /* \"contracts/polygon/flashswap.sol\":985:1021  _tokenBorrow == token1 ? _amount : 0 */\n    tag_73:\n        /* \"contracts/polygon/flashswap.sol\":967:1021  uint amount1Out = _tokenBorrow == token1 ? _amount : 0 */\n      swap1\n      pop\n        /* \"contracts/polygon/flashswap.sol\":1083:1100  bytes memory data */\n      0x00\n        /* \"contracts/polygon/flashswap.sol\":1114:1126  _tokenBorrow */\n      dup8\n        /* \"contracts/polygon/flashswap.sol\":1128:1135  _amount */\n      dup8\n        /* \"contracts/polygon/flashswap.sol\":1103:1136  abi.encode(_tokenBorrow, _amount) */\n      add(0x20, mload(0x40))\n      tag_74\n      swap3\n      swap2\n      swap1\n      tag_52\n      jump\t// in\n    tag_74:\n      mload(0x40)\n      0x20\n      dup2\n      dup4\n      sub\n      sub\n      dup2\n      mstore\n      swap1\n      0x40\n      mstore\n        /* \"contracts/polygon/flashswap.sol\":1083:1136  bytes memory data = abi.encode(_tokenBorrow, _amount) */\n      swap1\n      pop\n        /* \"contracts/polygon/flashswap.sol\":1158:1162  pair */\n      dup6\n        /* \"contracts/polygon/flashswap.sol\":1143:1168  IUniswapV2Pair(pair).swap */\n      0xffffffffffffffffffffffffffffffffffffffff\n      and\n      0x022c0d9f\n        /* \"contracts/polygon/flashswap.sol\":1169:1179  amount0Out */\n      dup5\n        /* \"contracts/polygon/flashswap.sol\":1181:1191  amount1Out */\n      dup5\n        /* \"contracts/polygon/flashswap.sol\":1201:1205  this */\n      address\n        /* \"contracts/polygon/flashswap.sol\":1208:1212  data */\n      dup6\n        /* \"contracts/polygon/flashswap.sol\":1143:1213  IUniswapV2Pair(pair).swap(amount0Out, amount1Out, address(this), data) */\n      mload(0x40)\n      dup6\n      0xffffffff\n      and\n      0xe0\n      shl\n      dup2\n      mstore\n      0x04\n      add\n      tag_75\n      swap5\n      swap4\n      swap3\n      swap2\n      swap1\n      tag_76\n      jump\t// in\n    tag_75:\n      0x00\n      mload(0x40)\n      dup1\n      dup4\n      sub\n      dup2\n      0x00\n      dup8\n      dup1\n      extcodesize\n      iszero\n      dup1\n      iszero\n      tag_77\n      jumpi\n      0x00\n      dup1\n      revert\n    tag_77:\n      pop\n      gas\n      call\n      iszero\n      dup1\n      iszero\n      tag_79\n      jumpi\n      returndatasize\n      0x00\n      dup1\n      returndatacopy\n      revert(0x00, returndatasize)\n    tag_79:\n      pop\n      pop\n      pop\n      pop\n        /* \"contracts/polygon/flashswap.sol\":679:1218  {... */\n      pop\n      pop\n      pop\n      pop\n      pop\n      pop\n        /* \"contracts/polygon/flashswap.sol\":611:1218  function testFlashSwap(address _tokenBorrow, uint _amount) external {... */\n      pop\n      pop\n      jump\t// out\n        /* \"#utility.yul\":88:205   */\n    tag_81:\n        /* \"#utility.yul\":197:198   */\n      0x00\n        /* \"#utility.yul\":194:195   */\n      dup1\n        /* \"#utility.yul\":187:199   */\n      revert\n        /* \"#utility.yul\":211:328   */\n    tag_82:\n        /* \"#utility.yul\":320:321   */\n      0x00\n        /* \"#utility.yul\":317:318   */\n      dup1\n        /* \"#utility.yul\":310:322   */\n      revert\n        /* \"#utility.yul\":334:460   */\n    tag_83:\n        /* \"#utility.yul\":371:378   */\n      0x00\n        /* \"#utility.yul\":411:453   */\n      0xffffffffffffffffffffffffffffffffffffffff\n        /* \"#utility.yul\":404:409   */\n      dup3\n        /* \"#utility.yul\":400:454   */\n      and\n        /* \"#utility.yul\":389:454   */\n      swap1\n      pop\n        /* \"#utility.yul\":334:460   */\n      swap2\n      swap1\n      pop\n      jump\t// out\n        /* \"#utility.yul\":466:562   */\n    tag_84:\n        /* \"#utility.yul\":503:510   */\n      0x00\n        /* \"#utility.yul\":532:556   */\n      tag_131\n        /* \"#utility.yul\":550:555   */\n      dup3\n        /* \"#utility.yul\":532:556   */\n      tag_83\n      jump\t// in\n    tag_131:\n        /* \"#utility.yul\":521:556   */\n      swap1\n      pop\n        /* \"#utility.yul\":466:562   */\n      swap2\n      swap1\n      pop\n      jump\t// out\n        /* \"#utility.yul\":568:690   */\n    tag_85:\n        /* \"#utility.yul\":641:665   */\n      tag_133\n        /* \"#utility.yul\":659:664   */\n      dup2\n        /* \"#utility.yul\":641:665   */\n      tag_84\n      jump\t// in\n    tag_133:\n        /* \"#utility.yul\":634:639   */\n      dup2\n        /* \"#utility.yul\":631:666   */\n      eq\n        /* \"#utility.yul\":621:684   */\n      tag_134\n      jumpi\n        /* \"#utility.yul\":680:681   */\n      0x00\n        /* \"#utility.yul\":677:678   */\n      dup1\n        /* \"#utility.yul\":670:682   */\n      revert\n        /* \"#utility.yul\":621:684   */\n    tag_134:\n        /* \"#utility.yul\":568:690   */\n      pop\n      jump\t// out\n        /* \"#utility.yul\":696:835   */\n    tag_86:\n        /* \"#utility.yul\":742:747   */\n      0x00\n        /* \"#utility.yul\":780:786   */\n      dup2\n        /* \"#utility.yul\":767:787   */\n      calldataload\n        /* \"#utility.yul\":758:787   */\n      swap1\n      pop\n        /* \"#utility.yul\":796:829   */\n      tag_136\n        /* \"#utility.yul\":823:828   */\n      dup2\n        /* \"#utility.yul\":796:829   */\n      tag_85\n      jump\t// in\n    tag_136:\n        /* \"#utility.yul\":696:835   */\n      swap3\n      swap2\n      pop\n      pop\n      jump\t// out\n        /* \"#utility.yul\":841:918   */\n    tag_87:\n        /* \"#utility.yul\":878:885   */\n      0x00\n        /* \"#utility.yul\":907:912   */\n      dup2\n        /* \"#utility.yul\":896:912   */\n      swap1\n      pop\n        /* \"#utility.yul\":841:918   */\n      swap2\n      swap1\n      pop\n      jump\t// out\n        /* \"#utility.yul\":924:1046   */\n    tag_88:\n        /* \"#utility.yul\":997:1021   */\n      tag_139\n        /* \"#utility.yul\":1015:1020   */\n      dup2\n        /* \"#utility.yul\":997:1021   */\n      tag_87\n      jump\t// in\n    tag_139:\n        /* \"#utility.yul\":990:995   */\n      dup2\n        /* \"#utility.yul\":987:1022   */\n      eq\n        /* \"#utility.yul\":977:1040   */\n      tag_140\n      jumpi\n        /* \"#utility.yul\":1036:1037   */\n      0x00\n        /* \"#utility.yul\":1033:1034   */\n      dup1\n        /* \"#utility.yul\":1026:1038   */\n      revert\n        /* \"#utility.yul\":977:1040   */\n    tag_140:\n        /* \"#utility.yul\":924:1046   */\n      pop\n      jump\t// out\n        /* \"#utility.yul\":1052:1191   */\n    tag_89:\n        /* \"#utility.yul\":1098:1103   */\n      0x00\n        /* \"#utility.yul\":1136:1142   */\n      dup2\n        /* \"#utility.yul\":1123:1143   */\n      calldataload\n        /* \"#utility.yul\":1114:1143   */\n      swap1\n      pop\n        /* \"#utility.yul\":1152:1185   */\n      tag_142\n        /* \"#utility.yul\":1179:1184   */\n      dup2\n        /* \"#utility.yul\":1152:1185   */\n      tag_88\n      jump\t// in\n    tag_142:\n        /* \"#utility.yul\":1052:1191   */\n      swap3\n      swap2\n      pop\n      pop\n      jump\t// out\n        /* \"#utility.yul\":1197:1314   */\n    tag_90:\n        /* \"#utility.yul\":1306:1307   */\n      0x00\n        /* \"#utility.yul\":1303:1304   */\n      dup1\n        /* \"#utility.yul\":1296:1308   */\n      revert\n        /* \"#utility.yul\":1320:1437   */\n    tag_91:\n        /* \"#utility.yul\":1429:1430   */\n      0x00\n        /* \"#utility.yul\":1426:1427   */\n      dup1\n        /* \"#utility.yul\":1419:1431   */\n      revert\n        /* \"#utility.yul\":1443:1560   */\n    tag_92:\n        /* \"#utility.yul\":1552:1553   */\n      0x00\n        /* \"#utility.yul\":1549:1550   */\n      dup1\n        /* \"#utility.yul\":1542:1554   */\n      revert\n        /* \"#utility.yul\":1579:2131   */\n    tag_93:\n        /* \"#utility.yul\":1636:1644   */\n      0x00\n        /* \"#utility.yul\":1646:1652   */\n      dup1\n        /* \"#utility.yul\":1696:1699   */\n      dup4\n        /* \"#utility.yul\":1689:1693   */\n      0x1f\n        /* \"#utility.yul\":1681:1687   */\n      dup5\n        /* \"#utility.yul\":1677:1694   */\n      add\n        /* \"#utility.yul\":1673:1700   */\n      slt\n        /* \"#utility.yul\":1663:1785   */\n      tag_147\n      jumpi\n        /* \"#utility.yul\":1704:1783   */\n      tag_148\n      tag_90\n      jump\t// in\n    tag_148:\n        /* \"#utility.yul\":1663:1785   */\n    tag_147:\n        /* \"#utility.yul\":1817:1823   */\n      dup3\n        /* \"#utility.yul\":1804:1824   */\n      calldataload\n        /* \"#utility.yul\":1794:1824   */\n      swap1\n      pop\n        /* \"#utility.yul\":1847:1865   */\n      0xffffffffffffffff\n        /* \"#utility.yul\":1839:1845   */\n      dup2\n        /* \"#utility.yul\":1836:1866   */\n      gt\n        /* \"#utility.yul\":1833:1950   */\n      iszero\n      tag_149\n      jumpi\n        /* \"#utility.yul\":1869:1948   */\n      tag_150\n      tag_91\n      jump\t// in\n    tag_150:\n        /* \"#utility.yul\":1833:1950   */\n    tag_149:\n        /* \"#utility.yul\":1983:1987   */\n      0x20\n        /* \"#utility.yul\":1975:1981   */\n      dup4\n        /* \"#utility.yul\":1971:1988   */\n      add\n        /* \"#utility.yul\":1959:1988   */\n      swap2\n      pop\n        /* \"#utility.yul\":2037:2040   */\n      dup4\n        /* \"#utility.yul\":2029:2033   */\n      0x01\n        /* \"#utility.yul\":2021:2027   */\n      dup3\n        /* \"#utility.yul\":2017:2034   */\n      mul\n        /* \"#utility.yul\":2007:2015   */\n      dup4\n        /* \"#utility.yul\":2003:2035   */\n      add\n        /* \"#utility.yul\":2000:2041   */\n      gt\n        /* \"#utility.yul\":1997:2125   */\n      iszero\n      tag_151\n      jumpi\n        /* \"#utility.yul\":2044:2123   */\n      tag_152\n      tag_92\n      jump\t// in\n    tag_152:\n        /* \"#utility.yul\":1997:2125   */\n    tag_151:\n        /* \"#utility.yul\":1579:2131   */\n      swap3\n      pop\n      swap3\n      swap1\n      pop\n      jump\t// out\n        /* \"#utility.yul\":2137:3100   */\n    tag_7:\n        /* \"#utility.yul\":2234:2240   */\n      0x00\n        /* \"#utility.yul\":2242:2248   */\n      dup1\n        /* \"#utility.yul\":2250:2256   */\n      0x00\n        /* \"#utility.yul\":2258:2264   */\n      dup1\n        /* \"#utility.yul\":2266:2272   */\n      0x00\n        /* \"#utility.yul\":2315:2318   */\n      0x80\n        /* \"#utility.yul\":2303:2312   */\n      dup7\n        /* \"#utility.yul\":2294:2301   */\n      dup9\n        /* \"#utility.yul\":2290:2313   */\n      sub\n        /* \"#utility.yul\":2286:2319   */\n      slt\n        /* \"#utility.yul\":2283:2403   */\n      iszero\n      tag_154\n      jumpi\n        /* \"#utility.yul\":2322:2401   */\n      tag_155\n      tag_81\n      jump\t// in\n    tag_155:\n        /* \"#utility.yul\":2283:2403   */\n    tag_154:\n        /* \"#utility.yul\":2442:2443   */\n      0x00\n        /* \"#utility.yul\":2467:2520   */\n      tag_156\n        /* \"#utility.yul\":2512:2519   */\n      dup9\n        /* \"#utility.yul\":2503:2509   */\n      dup3\n        /* \"#utility.yul\":2492:2501   */\n      dup10\n        /* \"#utility.yul\":2488:2510   */\n      add\n        /* \"#utility.yul\":2467:2520   */\n      tag_86\n      jump\t// in\n    tag_156:\n        /* \"#utility.yul\":2457:2520   */\n      swap6\n      pop\n        /* \"#utility.yul\":2413:2530   */\n      pop\n        /* \"#utility.yul\":2569:2571   */\n      0x20\n        /* \"#utility.yul\":2595:2648   */\n      tag_157\n        /* \"#utility.yul\":2640:2647   */\n      dup9\n        /* \"#utility.yul\":2631:2637   */\n      dup3\n        /* \"#utility.yul\":2620:2629   */\n      dup10\n        /* \"#utility.yul\":2616:2638   */\n      add\n        /* \"#utility.yul\":2595:2648   */\n      tag_89\n      jump\t// in\n    tag_157:\n        /* \"#utility.yul\":2585:2648   */\n      swap5\n      pop\n        /* \"#utility.yul\":2540:2658   */\n      pop\n        /* \"#utility.yul\":2697:2699   */\n      0x40\n        /* \"#utility.yul\":2723:2776   */\n      tag_158\n        /* \"#utility.yul\":2768:2775   */\n      dup9\n        /* \"#utility.yul\":2759:2765   */\n      dup3\n        /* \"#utility.yul\":2748:2757   */\n      dup10\n        /* \"#utility.yul\":2744:2766   */\n      add\n        /* \"#utility.yul\":2723:2776   */\n      tag_89\n      jump\t// in\n    tag_158:\n        /* \"#utility.yul\":2713:2776   */\n      swap4\n      pop\n        /* \"#utility.yul\":2668:2786   */\n      pop\n        /* \"#utility.yul\":2853:2855   */\n      0x60\n        /* \"#utility.yul\":2842:2851   */\n      dup7\n        /* \"#utility.yul\":2838:2856   */\n      add\n        /* \"#utility.yul\":2825:2857   */\n      calldataload\n        /* \"#utility.yul\":2884:2902   */\n      0xffffffffffffffff\n        /* \"#utility.yul\":2876:2882   */\n      dup2\n        /* \"#utility.yul\":2873:2903   */\n      gt\n        /* \"#utility.yul\":2870:2987   */\n      iszero\n      tag_159\n      jumpi\n        /* \"#utility.yul\":2906:2985   */\n      tag_160\n      tag_82\n      jump\t// in\n    tag_160:\n        /* \"#utility.yul\":2870:2987   */\n    tag_159:\n        /* \"#utility.yul\":3019:3083   */\n      tag_161\n        /* \"#utility.yul\":3075:3082   */\n      dup9\n        /* \"#utility.yul\":3066:3072   */\n      dup3\n        /* \"#utility.yul\":3055:3064   */\n      dup10\n        /* \"#utility.yul\":3051:3073   */\n      add\n        /* \"#utility.yul\":3019:3083   */\n      tag_93\n      jump\t// in\n    tag_161:\n        /* \"#utility.yul\":3001:3083   */\n      swap3\n      pop\n      swap3\n      pop\n        /* \"#utility.yul\":2796:3093   */\n      pop\n        /* \"#utility.yul\":2137:3100   */\n      swap3\n      swap6\n      pop\n      swap3\n      swap6\n      swap1\n      swap4\n      pop\n      jump\t// out\n        /* \"#utility.yul\":3106:3580   */\n    tag_11:\n        /* \"#utility.yul\":3174:3180   */\n      0x00\n        /* \"#utility.yul\":3182:3188   */\n      dup1\n        /* \"#utility.yul\":3231:3233   */\n      0x40\n        /* \"#utility.yul\":3219:3228   */\n      dup4\n        /* \"#utility.yul\":3210:3217   */\n      dup6\n        /* \"#utility.yul\":3206:3229   */\n      sub\n        /* \"#utility.yul\":3202:3234   */\n      slt\n        /* \"#utility.yul\":3199:3318   */\n      iszero\n      tag_163\n      jumpi\n        /* \"#utility.yul\":3237:3316   */\n      tag_164\n      tag_81\n      jump\t// in\n    tag_164:\n        /* \"#utility.yul\":3199:3318   */\n    tag_163:\n        /* \"#utility.yul\":3357:3358   */\n      0x00\n        /* \"#utility.yul\":3382:3435   */\n      tag_165\n        /* \"#utility.yul\":3427:3434   */\n      dup6\n        /* \"#utility.yul\":3418:3424   */\n      dup3\n        /* \"#utility.yul\":3407:3416   */\n      dup7\n        /* \"#utility.yul\":3403:3425   */\n      add\n        /* \"#utility.yul\":3382:3435   */\n      tag_86\n      jump\t// in\n    tag_165:\n        /* \"#utility.yul\":3372:3435   */\n      swap3\n      pop\n        /* \"#utility.yul\":3328:3445   */\n      pop\n        /* \"#utility.yul\":3484:3486   */\n      0x20\n        /* \"#utility.yul\":3510:3563   */\n      tag_166\n        /* \"#utility.yul\":3555:3562   */\n      dup6\n        /* \"#utility.yul\":3546:3552   */\n      dup3\n        /* \"#utility.yul\":3535:3544   */\n      dup7\n        /* \"#utility.yul\":3531:3553   */\n      add\n        /* \"#utility.yul\":3510:3563   */\n      tag_89\n      jump\t// in\n    tag_166:\n        /* \"#utility.yul\":3500:3563   */\n      swap2\n      pop\n        /* \"#utility.yul\":3455:3573   */\n      pop\n        /* \"#utility.yul\":3106:3580   */\n      swap3\n      pop\n      swap3\n      swap1\n      pop\n      jump\t// out\n        /* \"#utility.yul\":3586:3729   */\n    tag_94:\n        /* \"#utility.yul\":3643:3648   */\n      0x00\n        /* \"#utility.yul\":3674:3680   */\n      dup2\n        /* \"#utility.yul\":3668:3681   */\n      mload\n        /* \"#utility.yul\":3659:3681   */\n      swap1\n      pop\n        /* \"#utility.yul\":3690:3723   */\n      tag_168\n        /* \"#utility.yul\":3717:3722   */\n      dup2\n        /* \"#utility.yul\":3690:3723   */\n      tag_85\n      jump\t// in\n    tag_168:\n        /* \"#utility.yul\":3586:3729   */\n      swap3\n      swap2\n      pop\n      pop\n      jump\t// out\n        /* \"#utility.yul\":3735:4086   */\n    tag_17:\n        /* \"#utility.yul\":3805:3811   */\n      0x00\n        /* \"#utility.yul\":3854:3856   */\n      0x20\n        /* \"#utility.yul\":3842:3851   */\n      dup3\n        /* \"#utility.yul\":3833:3840   */\n      dup5\n        /* \"#utility.yul\":3829:3852   */\n      sub\n        /* \"#utility.yul\":3825:3857   */\n      slt\n        /* \"#utility.yul\":3822:3941   */\n      iszero\n      tag_170\n      jumpi\n        /* \"#utility.yul\":3860:3939   */\n      tag_171\n      tag_81\n      jump\t// in\n    tag_171:\n        /* \"#utility.yul\":3822:3941   */\n    tag_170:\n        /* \"#utility.yul\":3980:3981   */\n      0x00\n        /* \"#utility.yul\":4005:4069   */\n      tag_172\n        /* \"#utility.yul\":4061:4068   */\n      dup5\n        /* \"#utility.yul\":4052:4058   */\n      dup3\n        /* \"#utility.yul\":4041:4050   */\n      dup6\n        /* \"#utility.yul\":4037:4059   */\n      add\n        /* \"#utility.yul\":4005:4069   */\n      tag_94\n      jump\t// in\n    tag_172:\n        /* \"#utility.yul\":3995:4069   */\n      swap2\n      pop\n        /* \"#utility.yul\":3951:4079   */\n      pop\n        /* \"#utility.yul\":3735:4086   */\n      swap3\n      swap2\n      pop\n      pop\n      jump\t// out\n        /* \"#utility.yul\":4092:4210   */\n    tag_95:\n        /* \"#utility.yul\":4179:4203   */\n      tag_174\n        /* \"#utility.yul\":4197:4202   */\n      dup2\n        /* \"#utility.yul\":4179:4203   */\n      tag_84\n      jump\t// in\n    tag_174:\n        /* \"#utility.yul\":4174:4177   */\n      dup3\n        /* \"#utility.yul\":4167:4204   */\n      mstore\n        /* \"#utility.yul\":4092:4210   */\n      pop\n      pop\n      jump\t// out\n        /* \"#utility.yul\":4216:4548   */\n    tag_22:\n        /* \"#utility.yul\":4337:4341   */\n      0x00\n        /* \"#utility.yul\":4375:4377   */\n      0x40\n        /* \"#utility.yul\":4364:4373   */\n      dup3\n        /* \"#utility.yul\":4360:4378   */\n      add\n        /* \"#utility.yul\":4352:4378   */\n      swap1\n      pop\n        /* \"#utility.yul\":4388:4459   */\n      tag_176\n        /* \"#utility.yul\":4456:4457   */\n      0x00\n        /* \"#utility.yul\":4445:4454   */\n      dup4\n        /* \"#utility.yul\":4441:4458   */\n      add\n        /* \"#utility.yul\":4432:4438   */\n      dup6\n        /* \"#utility.yul\":4388:4459   */\n      tag_95\n      jump\t// in\n    tag_176:\n        /* \"#utility.yul\":4469:4541   */\n      tag_177\n        /* \"#utility.yul\":4537:4539   */\n      0x20\n        /* \"#utility.yul\":4526:4535   */\n      dup4\n        /* \"#utility.yul\":4522:4540   */\n      add\n        /* \"#utility.yul\":4513:4519   */\n      dup5\n        /* \"#utility.yul\":4469:4541   */\n      tag_95\n      jump\t// in\n    tag_177:\n        /* \"#utility.yul\":4216:4548   */\n      swap4\n      swap3\n      pop\n      pop\n      pop\n      jump\t// out\n        /* \"#utility.yul\":4554:4723   */\n    tag_96:\n        /* \"#utility.yul\":4638:4649   */\n      0x00\n        /* \"#utility.yul\":4672:4678   */\n      dup3\n        /* \"#utility.yul\":4667:4670   */\n      dup3\n        /* \"#utility.yul\":4660:4679   */\n      mstore\n        /* \"#utility.yul\":4712:4716   */\n      0x20\n        /* \"#utility.yul\":4707:4710   */\n      dup3\n        /* \"#utility.yul\":4703:4717   */\n      add\n        /* \"#utility.yul\":4688:4717   */\n      swap1\n      pop\n        /* \"#utility.yul\":4554:4723   */\n      swap3\n      swap2\n      pop\n      pop\n      jump\t// out\n        /* \"#utility.yul\":4729:4884   */\n    tag_97:\n        /* \"#utility.yul\":4869:4876   */\n      0x2170616972000000000000000000000000000000000000000000000000000000\n        /* \"#utility.yul\":4865:4866   */\n      0x00\n        /* \"#utility.yul\":4857:4863   */\n      dup3\n        /* \"#utility.yul\":4853:4867   */\n      add\n        /* \"#utility.yul\":4846:4877   */\n      mstore\n        /* \"#utility.yul\":4729:4884   */\n      pop\n      jump\t// out\n        /* \"#utility.yul\":4890:5255   */\n    tag_98:\n        /* \"#utility.yul\":5032:5035   */\n      0x00\n        /* \"#utility.yul\":5053:5119   */\n      tag_181\n        /* \"#utility.yul\":5117:5118   */\n      0x05\n        /* \"#utility.yul\":5112:5115   */\n      dup4\n        /* \"#utility.yul\":5053:5119   */\n      tag_96\n      jump\t// in\n    tag_181:\n        /* \"#utility.yul\":5046:5119   */\n      swap2\n      pop\n        /* \"#utility.yul\":5128:5221   */\n      tag_182\n        /* \"#utility.yul\":5217:5220   */\n      dup3\n        /* \"#utility.yul\":5128:5221   */\n      tag_97\n      jump\t// in\n    tag_182:\n        /* \"#utility.yul\":5246:5248   */\n      0x20\n        /* \"#utility.yul\":5241:5244   */\n      dup3\n        /* \"#utility.yul\":5237:5249   */\n      add\n        /* \"#utility.yul\":5230:5249   */\n      swap1\n      pop\n        /* \"#utility.yul\":4890:5255   */\n      swap2\n      swap1\n      pop\n      jump\t// out\n        /* \"#utility.yul\":5261:5680   */\n    tag_28:\n        /* \"#utility.yul\":5427:5431   */\n      0x00\n        /* \"#utility.yul\":5465:5467   */\n      0x20\n        /* \"#utility.yul\":5454:5463   */\n      dup3\n        /* \"#utility.yul\":5450:5468   */\n      add\n        /* \"#utility.yul\":5442:5468   */\n      swap1\n      pop\n        /* \"#utility.yul\":5514:5523   */\n      dup2\n        /* \"#utility.yul\":5508:5512   */\n      dup2\n        /* \"#utility.yul\":5504:5524   */\n      sub\n        /* \"#utility.yul\":5500:5501   */\n      0x00\n        /* \"#utility.yul\":5489:5498   */\n      dup4\n        /* \"#utility.yul\":5485:5502   */\n      add\n        /* \"#utility.yul\":5478:5525   */\n      mstore\n        /* \"#utility.yul\":5542:5673   */\n      tag_184\n        /* \"#utility.yul\":5668:5672   */\n      dup2\n        /* \"#utility.yul\":5542:5673   */\n      tag_98\n      jump\t// in\n    tag_184:\n        /* \"#utility.yul\":5534:5673   */\n      swap1\n      pop\n        /* \"#utility.yul\":5261:5680   */\n      swap2\n      swap1\n      pop\n      jump\t// out\n        /* \"#utility.yul\":5686:5843   */\n    tag_99:\n        /* \"#utility.yul\":5826:5835   */\n      0x2173656e64657200000000000000000000000000000000000000000000000000\n        /* \"#utility.yul\":5822:5823   */\n      0x00\n        /* \"#utility.yul\":5814:5820   */\n      dup3\n        /* \"#utility.yul\":5810:5824   */\n      add\n        /* \"#utility.yul\":5803:5836   */\n      mstore\n        /* \"#utility.yul\":5686:5843   */\n      pop\n      jump\t// out\n        /* \"#utility.yul\":5849:6214   */\n    tag_100:\n        /* \"#utility.yul\":5991:5994   */\n      0x00\n        /* \"#utility.yul\":6012:6078   */\n      tag_187\n        /* \"#utility.yul\":6076:6077   */\n      0x07\n        /* \"#utility.yul\":6071:6074   */\n      dup4\n        /* \"#utility.yul\":6012:6078   */\n      tag_96\n      jump\t// in\n    tag_187:\n        /* \"#utility.yul\":6005:6078   */\n      swap2\n      pop\n        /* \"#utility.yul\":6087:6180   */\n      tag_188\n        /* \"#utility.yul\":6176:6179   */\n      dup3\n        /* \"#utility.yul\":6087:6180   */\n      tag_99\n      jump\t// in\n    tag_188:\n        /* \"#utility.yul\":6205:6207   */\n      0x20\n        /* \"#utility.yul\":6200:6203   */\n      dup3\n        /* \"#utility.yul\":6196:6208   */\n      add\n        /* \"#utility.yul\":6189:6208   */\n      swap1\n      pop\n        /* \"#utility.yul\":5849:6214   */\n      swap2\n      swap1\n      pop\n      jump\t// out\n        /* \"#utility.yul\":6220:6639   */\n    tag_31:\n        /* \"#utility.yul\":6386:6390   */\n      0x00\n        /* \"#utility.yul\":6424:6426   */\n      0x20\n        /* \"#utility.yul\":6413:6422   */\n      dup3\n        /* \"#utility.yul\":6409:6427   */\n      add\n        /* \"#utility.yul\":6401:6427   */\n      swap1\n      pop\n        /* \"#utility.yul\":6473:6482   */\n      dup2\n        /* \"#utility.yul\":6467:6471   */\n      dup2\n        /* \"#utility.yul\":6463:6483   */\n      sub\n        /* \"#utility.yul\":6459:6460   */\n      0x00\n        /* \"#utility.yul\":6448:6457   */\n      dup4\n        /* \"#utility.yul\":6444:6461   */\n      add\n        /* \"#utility.yul\":6437:6484   */\n      mstore\n        /* \"#utility.yul\":6501:6632   */\n      tag_190\n        /* \"#utility.yul\":6627:6631   */\n      dup2\n        /* \"#utility.yul\":6501:6632   */\n      tag_100\n      jump\t// in\n    tag_190:\n        /* \"#utility.yul\":6493:6632   */\n      swap1\n      pop\n        /* \"#utility.yul\":6220:6639   */\n      swap2\n      swap1\n      pop\n      jump\t// out\n        /* \"#utility.yul\":6645:6749   */\n    tag_101:\n        /* \"#utility.yul\":6690:6697   */\n      0x00\n        /* \"#utility.yul\":6719:6743   */\n      tag_192\n        /* \"#utility.yul\":6737:6742   */\n      dup3\n        /* \"#utility.yul\":6719:6743   */\n      tag_83\n      jump\t// in\n    tag_192:\n        /* \"#utility.yul\":6708:6743   */\n      swap1\n      pop\n        /* \"#utility.yul\":6645:6749   */\n      swap2\n      swap1\n      pop\n      jump\t// out\n        /* \"#utility.yul\":6755:6893   */\n    tag_102:\n        /* \"#utility.yul\":6836:6868   */\n      tag_194\n        /* \"#utility.yul\":6862:6867   */\n      dup2\n        /* \"#utility.yul\":6836:6868   */\n      tag_101\n      jump\t// in\n    tag_194:\n        /* \"#utility.yul\":6829:6834   */\n      dup2\n        /* \"#utility.yul\":6826:6869   */\n      eq\n        /* \"#utility.yul\":6816:6887   */\n      tag_195\n      jumpi\n        /* \"#utility.yul\":6883:6884   */\n      0x00\n        /* \"#utility.yul\":6880:6881   */\n      dup1\n        /* \"#utility.yul\":6873:6885   */\n      revert\n        /* \"#utility.yul\":6816:6887   */\n    tag_195:\n        /* \"#utility.yul\":6755:6893   */\n      pop\n      jump\t// out\n        /* \"#utility.yul\":6899:7054   */\n    tag_103:\n        /* \"#utility.yul\":6953:6958   */\n      0x00\n        /* \"#utility.yul\":6991:6997   */\n      dup2\n        /* \"#utility.yul\":6978:6998   */\n      calldataload\n        /* \"#utility.yul\":6969:6998   */\n      swap1\n      pop\n        /* \"#utility.yul\":7007:7048   */\n      tag_197\n        /* \"#utility.yul\":7042:7047   */\n      dup2\n        /* \"#utility.yul\":7007:7048   */\n      tag_102\n      jump\t// in\n    tag_197:\n        /* \"#utility.yul\":6899:7054   */\n      swap3\n      swap2\n      pop\n      pop\n      jump\t// out\n        /* \"#utility.yul\":7060:7550   */\n    tag_33:\n        /* \"#utility.yul\":7136:7142   */\n      0x00\n        /* \"#utility.yul\":7144:7150   */\n      dup1\n        /* \"#utility.yul\":7193:7195   */\n      0x40\n        /* \"#utility.yul\":7181:7190   */\n      dup4\n        /* \"#utility.yul\":7172:7179   */\n      dup6\n        /* \"#utility.yul\":7168:7191   */\n      sub\n        /* \"#utility.yul\":7164:7196   */\n      slt\n        /* \"#utility.yul\":7161:7280   */\n      iszero\n      tag_199\n      jumpi\n        /* \"#utility.yul\":7199:7278   */\n      tag_200\n      tag_81\n      jump\t// in\n    tag_200:\n        /* \"#utility.yul\":7161:7280   */\n    tag_199:\n        /* \"#utility.yul\":7319:7320   */\n      0x00\n        /* \"#utility.yul\":7344:7405   */\n      tag_201\n        /* \"#utility.yul\":7397:7404   */\n      dup6\n        /* \"#utility.yul\":7388:7394   */\n      dup3\n        /* \"#utility.yul\":7377:7386   */\n      dup7\n        /* \"#utility.yul\":7373:7395   */\n      add\n        /* \"#utility.yul\":7344:7405   */\n      tag_103\n      jump\t// in\n    tag_201:\n        /* \"#utility.yul\":7334:7405   */\n      swap3\n      pop\n        /* \"#utility.yul\":7290:7415   */\n      pop\n        /* \"#utility.yul\":7454:7456   */\n      0x20\n        /* \"#utility.yul\":7480:7533   */\n      tag_202\n        /* \"#utility.yul\":7525:7532   */\n      dup6\n        /* \"#utility.yul\":7516:7522   */\n      dup3\n        /* \"#utility.yul\":7505:7514   */\n      dup7\n        /* \"#utility.yul\":7501:7523   */\n      add\n        /* \"#utility.yul\":7480:7533   */\n      tag_89\n      jump\t// in\n    tag_202:\n        /* \"#utility.yul\":7470:7533   */\n      swap2\n      pop\n        /* \"#utility.yul\":7425:7543   */\n      pop\n        /* \"#utility.yul\":7060:7550   */\n      swap3\n      pop\n      swap3\n      swap1\n      pop\n      jump\t// out\n        /* \"#utility.yul\":7556:7736   */\n    tag_104:\n        /* \"#utility.yul\":7604:7681   */\n      0x4e487b7100000000000000000000000000000000000000000000000000000000\n        /* \"#utility.yul\":7601:7602   */\n      0x00\n        /* \"#utility.yul\":7594:7682   */\n      mstore\n        /* \"#utility.yul\":7701:7705   */\n      0x11\n        /* \"#utility.yul\":7698:7699   */\n      0x04\n        /* \"#utility.yul\":7691:7706   */\n      mstore\n        /* \"#utility.yul\":7725:7729   */\n      0x24\n        /* \"#utility.yul\":7722:7723   */\n      0x00\n        /* \"#utility.yul\":7715:7730   */\n      revert\n        /* \"#utility.yul\":7742:8090   */\n    tag_35:\n        /* \"#utility.yul\":7782:7789   */\n      0x00\n        /* \"#utility.yul\":7805:7825   */\n      tag_205\n        /* \"#utility.yul\":7823:7824   */\n      dup3\n        /* \"#utility.yul\":7805:7825   */\n      tag_87\n      jump\t// in\n    tag_205:\n        /* \"#utility.yul\":7800:7825   */\n      swap2\n      pop\n        /* \"#utility.yul\":7839:7859   */\n      tag_206\n        /* \"#utility.yul\":7857:7858   */\n      dup4\n        /* \"#utility.yul\":7839:7859   */\n      tag_87\n      jump\t// in\n    tag_206:\n        /* \"#utility.yul\":7834:7859   */\n      swap3\n      pop\n        /* \"#utility.yul\":8027:8028   */\n      dup2\n        /* \"#utility.yul\":7959:8025   */\n      0xffffffffffffffffffffffffffffffffffffffffffffffffffffffffffffffff\n        /* \"#utility.yul\":7955:8029   */\n      div\n        /* \"#utility.yul\":7952:7953   */\n      dup4\n        /* \"#utility.yul\":7949:8030   */\n      gt\n        /* \"#utility.yul\":7944:7945   */\n      dup3\n        /* \"#utility.yul\":7937:7946   */\n      iszero\n        /* \"#utility.yul\":7930:7947   */\n      iszero\n        /* \"#utility.yul\":7926:8031   */\n      and\n        /* \"#utility.yul\":7923:8054   */\n      iszero\n      tag_207\n      jumpi\n        /* \"#utility.yul\":8034:8052   */\n      tag_208\n      tag_104\n      jump\t// in\n    tag_208:\n        /* \"#utility.yul\":7923:8054   */\n    tag_207:\n        /* \"#utility.yul\":8082:8083   */\n      dup3\n        /* \"#utility.yul\":8079:8080   */\n      dup3\n        /* \"#utility.yul\":8075:8084   */\n      mul\n        /* \"#utility.yul\":8064:8084   */\n      swap1\n      pop\n        /* \"#utility.yul\":7742:8090   */\n      swap3\n      swap2\n      pop\n      pop\n      jump\t// out\n        /* \"#utility.yul\":8096:8276   */\n    tag_105:\n        /* \"#utility.yul\":8144:8221   */\n      0x4e487b7100000000000000000000000000000000000000000000000000000000\n        /* \"#utility.yul\":8141:8142   */\n      0x00\n        /* \"#utility.yul\":8134:8222   */\n      mstore\n        /* \"#utility.yul\":8241:8245   */\n      0x12\n        /* \"#utility.yul\":8238:8239   */\n      0x04\n        /* \"#utility.yul\":8231:8246   */\n      mstore\n        /* \"#utility.yul\":8265:8269   */\n      0x24\n        /* \"#utility.yul\":8262:8263   */\n      0x00\n        /* \"#utility.yul\":8255:8270   */\n      revert\n        /* \"#utility.yul\":8282:8467   */\n    tag_37:\n        /* \"#utility.yul\":8322:8323   */\n      0x00\n        /* \"#utility.yul\":8339:8359   */\n      tag_211\n        /* \"#utility.yul\":8357:8358   */\n      dup3\n        /* \"#utility.yul\":8339:8359   */\n      tag_87\n      jump\t// in\n    tag_211:\n        /* \"#utility.yul\":8334:8359   */\n      swap2\n      pop\n        /* \"#utility.yul\":8373:8393   */\n      tag_212\n        /* \"#utility.yul\":8391:8392   */\n      dup4\n        /* \"#utility.yul\":8373:8393   */\n      tag_87\n      jump\t// in\n    tag_212:\n        /* \"#utility.yul\":8368:8393   */\n      swap3\n      pop\n        /* \"#utility.yul\":8412:8413   */\n      dup3\n        /* \"#utility.yul\":8402:8437   */\n      tag_213\n      jumpi\n        /* \"#utility.yul\":8417:8435   */\n      tag_214\n      tag_105\n      jump\t// in\n    tag_214:\n        /* \"#utility.yul\":8402:8437   */\n    tag_213:\n        /* \"#utility.yul\":8459:8460   */\n      dup3\n        /* \"#utility.yul\":8456:8457   */\n      dup3\n        /* \"#utility.yul\":8452:8461   */\n      div\n        /* \"#utility.yul\":8447:8461   */\n      swap1\n      pop\n        /* \"#utility.yul\":8282:8467   */\n      swap3\n      swap2\n      pop\n      pop\n      jump\t// out\n        /* \"#utility.yul\":8473:8778   */\n    tag_39:\n        /* \"#utility.yul\":8513:8516   */\n      0x00\n        /* \"#utility.yul\":8532:8552   */\n      tag_216\n        /* \"#utility.yul\":8550:8551   */\n      dup3\n        /* \"#utility.yul\":8532:8552   */\n      tag_87\n      jump\t// in\n    tag_216:\n        /* \"#utility.yul\":8527:8552   */\n      swap2\n      pop\n        /* \"#utility.yul\":8566:8586   */\n      tag_217\n        /* \"#utility.yul\":8584:8585   */\n      dup4\n        /* \"#utility.yul\":8566:8586   */\n      tag_87\n      jump\t// in\n    tag_217:\n        /* \"#utility.yul\":8561:8586   */\n      swap3\n      pop\n        /* \"#utility.yul\":8720:8721   */\n      dup3\n        /* \"#utility.yul\":8652:8718   */\n      0xffffffffffffffffffffffffffffffffffffffffffffffffffffffffffffffff\n        /* \"#utility.yul\":8648:8722   */\n      sub\n        /* \"#utility.yul\":8645:8646   */\n      dup3\n        /* \"#utility.yul\":8642:8723   */\n      gt\n        /* \"#utility.yul\":8639:8746   */\n      iszero\n      tag_218\n      jumpi\n        /* \"#utility.yul\":8726:8744   */\n      tag_219\n      tag_104\n      jump\t// in\n    tag_219:\n        /* \"#utility.yul\":8639:8746   */\n    tag_218:\n        /* \"#utility.yul\":8770:8771   */\n      dup3\n        /* \"#utility.yul\":8767:8768   */\n      dup3\n        /* \"#utility.yul\":8763:8772   */\n      add\n        /* \"#utility.yul\":8756:8772   */\n      swap1\n      pop\n        /* \"#utility.yul\":8473:8778   */\n      swap3\n      swap2\n      pop\n      pop\n      jump\t// out\n        /* \"#utility.yul\":8784:8940   */\n    tag_106:\n        /* \"#utility.yul\":8924:8932   */\n      0x616d6f756e740000000000000000000000000000000000000000000000000000\n        /* \"#utility.yul\":8920:8921   */\n      0x00\n        /* \"#utility.yul\":8912:8918   */\n      dup3\n        /* \"#utility.yul\":8908:8922   */\n      add\n        /* \"#utility.yul\":8901:8933   */\n      mstore\n        /* \"#utility.yul\":8784:8940   */\n      pop\n      jump\t// out\n        /* \"#utility.yul\":8946:9311   */\n    tag_107:\n        /* \"#utility.yul\":9088:9091   */\n      0x00\n        /* \"#utility.yul\":9109:9175   */\n      tag_222\n        /* \"#utility.yul\":9173:9174   */\n      0x06\n        /* \"#utility.yul\":9168:9171   */\n      dup4\n        /* \"#utility.yul\":9109:9175   */\n      tag_96\n      jump\t// in\n    tag_222:\n        /* \"#utility.yul\":9102:9175   */\n      swap2\n      pop\n        /* \"#utility.yul\":9184:9277   */\n      tag_223\n        /* \"#utility.yul\":9273:9276   */\n      dup3\n        /* \"#utility.yul\":9184:9277   */\n      tag_106\n      jump\t// in\n    tag_223:\n        /* \"#utility.yul\":9302:9304   */\n      0x20\n        /* \"#utility.yul\":9297:9300   */\n      dup3\n        /* \"#utility.yul\":9293:9305   */\n      add\n        /* \"#utility.yul\":9286:9305   */\n      swap1\n      pop\n        /* \"#utility.yul\":8946:9311   */\n      swap2\n      swap1\n      pop\n      jump\t// out\n        /* \"#utility.yul\":9317:9435   */\n    tag_108:\n        /* \"#utility.yul\":9404:9428   */\n      tag_225\n        /* \"#utility.yul\":9422:9427   */\n      dup2\n        /* \"#utility.yul\":9404:9428   */\n      tag_87\n      jump\t// in\n    tag_225:\n        /* \"#utility.yul\":9399:9402   */\n      dup3\n        /* \"#utility.yul\":9392:9429   */\n      mstore\n        /* \"#utility.yul\":9317:9435   */\n      pop\n      pop\n      jump\t// out\n        /* \"#utility.yul\":9441:9970   */\n    tag_42:\n        /* \"#utility.yul\":9635:9639   */\n      0x00\n        /* \"#utility.yul\":9673:9675   */\n      0x40\n        /* \"#utility.yul\":9662:9671   */\n      dup3\n        /* \"#utility.yul\":9658:9676   */\n      add\n        /* \"#utility.yul\":9650:9676   */\n      swap1\n      pop\n        /* \"#utility.yul\":9722:9731   */\n      dup2\n        /* \"#utility.yul\":9716:9720   */\n      dup2\n        /* \"#utility.yul\":9712:9732   */\n      sub\n        /* \"#utility.yul\":9708:9709   */\n      0x00\n        /* \"#utility.yul\":9697:9706   */\n      dup4\n        /* \"#utility.yul\":9693:9710   */\n      add\n        /* \"#utility.yul\":9686:9733   */\n      mstore\n        /* \"#utility.yul\":9750:9881   */\n      tag_227\n        /* \"#utility.yul\":9876:9880   */\n      dup2\n        /* \"#utility.yul\":9750:9881   */\n      tag_107\n      jump\t// in\n    tag_227:\n        /* \"#utility.yul\":9742:9881   */\n      swap1\n      pop\n        /* \"#utility.yul\":9891:9963   */\n      tag_228\n        /* \"#utility.yul\":9959:9961   */\n      0x20\n        /* \"#utility.yul\":9948:9957   */\n      dup4\n        /* \"#utility.yul\":9944:9962   */\n      add\n        /* \"#utility.yul\":9935:9941   */\n      dup5\n        /* \"#utility.yul\":9891:9963   */\n      tag_108\n      jump\t// in\n    tag_228:\n        /* \"#utility.yul\":9441:9970   */\n      swap3\n      swap2\n      pop\n      pop\n      jump\t// out\n        /* \"#utility.yul\":9976:10133   */\n    tag_109:\n        /* \"#utility.yul\":10116:10125   */\n      0x616d6f756e743000000000000000000000000000000000000000000000000000\n        /* \"#utility.yul\":10112:10113   */\n      0x00\n        /* \"#utility.yul\":10104:10110   */\n      dup3\n        /* \"#utility.yul\":10100:10114   */\n      add\n        /* \"#utility.yul\":10093:10126   */\n      mstore\n        /* \"#utility.yul\":9976:10133   */\n      pop\n      jump\t// out\n        /* \"#utility.yul\":10139:10504   */\n    tag_110:\n        /* \"#utility.yul\":10281:10284   */\n      0x00\n        /* \"#utility.yul\":10302:10368   */\n      tag_231\n        /* \"#utility.yul\":10366:10367   */\n      0x07\n        /* \"#utility.yul\":10361:10364   */\n      dup4\n        /* \"#utility.yul\":10302:10368   */\n      tag_96\n      jump\t// in\n    tag_231:\n        /* \"#utility.yul\":10295:10368   */\n      swap2\n      pop\n        /* \"#utility.yul\":10377:10470   */\n      tag_232\n        /* \"#utility.yul\":10466:10469   */\n      dup3\n        /* \"#utility.yul\":10377:10470   */\n      tag_109\n      jump\t// in\n    tag_232:\n        /* \"#utility.yul\":10495:10497   */\n      0x20\n        /* \"#utility.yul\":10490:10493   */\n      dup3\n        /* \"#utility.yul\":10486:10498   */\n      add\n        /* \"#utility.yul\":10479:10498   */\n      swap1\n      pop\n        /* \"#utility.yul\":10139:10504   */\n      swap2\n      swap1\n      pop\n      jump\t// out\n        /* \"#utility.yul\":10510:11039   */\n    tag_44:\n        /* \"#utility.yul\":10704:10708   */\n      0x00\n        /* \"#utility.yul\":10742:10744   */\n      0x40\n        /* \"#utility.yul\":10731:10740   */\n      dup3\n        /* \"#utility.yul\":10727:10745   */\n      add\n        /* \"#utility.yul\":10719:10745   */\n      swap1\n      pop\n        /* \"#utility.yul\":10791:10800   */\n      dup2\n        /* \"#utility.yul\":10785:10789   */\n      dup2\n        /* \"#utility.yul\":10781:10801   */\n      sub\n        /* \"#utility.yul\":10777:10778   */\n      0x00\n        /* \"#utility.yul\":10766:10775   */\n      dup4\n        /* \"#utility.yul\":10762:10779   */\n      add\n        /* \"#utility.yul\":10755:10802   */\n      mstore\n        /* \"#utility.yul\":10819:10950   */\n      tag_234\n        /* \"#utility.yul\":10945:10949   */\n      dup2\n        /* \"#utility.yul\":10819:10950   */\n      tag_110\n      jump\t// in\n    tag_234:\n        /* \"#utility.yul\":10811:10950   */\n      swap1\n      pop\n        /* \"#utility.yul\":10960:11032   */\n      tag_235\n        /* \"#utility.yul\":11028:11030   */\n      0x20\n        /* \"#utility.yul\":11017:11026   */\n      dup4\n        /* \"#utility.yul\":11013:11031   */\n      add\n        /* \"#utility.yul\":11004:11010   */\n      dup5\n        /* \"#utility.yul\":10960:11032   */\n      tag_108\n      jump\t// in\n    tag_235:\n        /* \"#utility.yul\":10510:11039   */\n      swap3\n      swap2\n      pop\n      pop\n      jump\t// out\n        /* \"#utility.yul\":11045:11202   */\n    tag_111:\n        /* \"#utility.yul\":11185:11194   */\n      0x616d6f756e743100000000000000000000000000000000000000000000000000\n        /* \"#utility.yul\":11181:11182   */\n      0x00\n        /* \"#utility.yul\":11173:11179   */\n      dup3\n        /* \"#utility.yul\":11169:11183   */\n      add\n        /* \"#utility.yul\":11162:11195   */\n      mstore\n        /* \"#utility.yul\":11045:11202   */\n      pop\n      jump\t// out\n        /* \"#utility.yul\":11208:11573   */\n    tag_112:\n        /* \"#utility.yul\":11350:11353   */\n      0x00\n        /* \"#utility.yul\":11371:11437   */\n      tag_238\n        /* \"#utility.yul\":11435:11436   */\n      0x07\n        /* \"#utility.yul\":11430:11433   */\n      dup4\n        /* \"#utility.yul\":11371:11437   */\n      tag_96\n      jump\t// in\n    tag_238:\n        /* \"#utility.yul\":11364:11437   */\n      swap2\n      pop\n        /* \"#utility.yul\":11446:11539   */\n      tag_239\n        /* \"#utility.yul\":11535:11538   */\n      dup3\n        /* \"#utility.yul\":11446:11539   */\n      tag_111\n      jump\t// in\n    tag_239:\n        /* \"#utility.yul\":11564:11566   */\n      0x20\n        /* \"#utility.yul\":11559:11562   */\n      dup3\n        /* \"#utility.yul\":11555:11567   */\n      add\n        /* \"#utility.yul\":11548:11567   */\n      swap1\n      pop\n        /* \"#utility.yul\":11208:11573   */\n      swap2\n      swap1\n      pop\n      jump\t// out\n        /* \"#utility.yul\":11579:12108   */\n    tag_46:\n        /* \"#utility.yul\":11773:11777   */\n      0x00\n        /* \"#utility.yul\":11811:11813   */\n      0x40\n        /* \"#utility.yul\":11800:11809   */\n      dup3\n        /* \"#utility.yul\":11796:11814   */\n      add\n        /* \"#utility.yul\":11788:11814   */\n      swap1\n      pop\n        /* \"#utility.yul\":11860:11869   */\n      dup2\n        /* \"#utility.yul\":11854:11858   */\n      dup2\n        /* \"#utility.yul\":11850:11870   */\n      sub\n        /* \"#utility.yul\":11846:11847   */\n      0x00\n        /* \"#utility.yul\":11835:11844   */\n      dup4\n        /* \"#utility.yul\":11831:11848   */\n      add\n        /* \"#utility.yul\":11824:11871   */\n      mstore\n        /* \"#utility.yul\":11888:12019   */\n      tag_241\n        /* \"#utility.yul\":12014:12018   */\n      dup2\n        /* \"#utility.yul\":11888:12019   */\n      tag_112\n      jump\t// in\n    tag_241:\n        /* \"#utility.yul\":11880:12019   */\n      swap1\n      pop\n        /* \"#utility.yul\":12029:12101   */\n      tag_242\n        /* \"#utility.yul\":12097:12099   */\n      0x20\n        /* \"#utility.yul\":12086:12095   */\n      dup4\n        /* \"#utility.yul\":12082:12100   */\n      add\n        /* \"#utility.yul\":12073:12079   */\n      dup5\n        /* \"#utility.yul\":12029:12101   */\n      tag_108\n      jump\t// in\n    tag_242:\n        /* \"#utility.yul\":11579:12108   */\n      swap3\n      swap2\n      pop\n      pop\n      jump\t// out\n        /* \"#utility.yul\":12114:12267   */\n    tag_113:\n        /* \"#utility.yul\":12254:12259   */\n      0x6665650000000000000000000000000000000000000000000000000000000000\n        /* \"#utility.yul\":12250:12251   */\n      0x00\n        /* \"#utility.yul\":12242:12248   */\n      dup3\n        /* \"#utility.yul\":12238:12252   */\n      add\n        /* \"#utility.yul\":12231:12260   */\n      mstore\n        /* \"#utility.yul\":12114:12267   */\n      pop\n      jump\t// out\n        /* \"#utility.yul\":12273:12638   */\n    tag_114:\n        /* \"#utility.yul\":12415:12418   */\n      0x00\n        /* \"#utility.yul\":12436:12502   */\n      tag_245\n        /* \"#utility.yul\":12500:12501   */\n      0x03\n        /* \"#utility.yul\":12495:12498   */\n      dup4\n        /* \"#utility.yul\":12436:12502   */\n      tag_96\n      jump\t// in\n    tag_245:\n        /* \"#utility.yul\":12429:12502   */\n      swap2\n      pop\n        /* \"#utility.yul\":12511:12604   */\n      tag_246\n        /* \"#utility.yul\":12600:12603   */\n      dup3\n        /* \"#utility.yul\":12511:12604   */\n      tag_113\n      jump\t// in\n    tag_246:\n        /* \"#utility.yul\":12629:12631   */\n      0x20\n        /* \"#utility.yul\":12624:12627   */\n      dup3\n        /* \"#utility.yul\":12620:12632   */\n      add\n        /* \"#utility.yul\":12613:12632   */\n      swap1\n      pop\n        /* \"#utility.yul\":12273:12638   */\n      swap2\n      swap1\n      pop\n      jump\t// out\n        /* \"#utility.yul\":12644:13173   */\n    tag_48:\n        /* \"#utility.yul\":12838:12842   */\n      0x00\n        /* \"#utility.yul\":12876:12878   */\n      0x40\n        /* \"#utility.yul\":12865:12874   */\n      dup3\n        /* \"#utility.yul\":12861:12879   */\n      add\n        /* \"#utility.yul\":12853:12879   */\n      swap1\n      pop\n        /* \"#utility.yul\":12925:12934   */\n      dup2\n        /* \"#utility.yul\":12919:12923   */\n      dup2\n        /* \"#utility.yul\":12915:12935   */\n      sub\n        /* \"#utility.yul\":12911:12912   */\n      0x00\n        /* \"#utility.yul\":12900:12909   */\n      dup4\n        /* \"#utility.yul\":12896:12913   */\n      add\n        /* \"#utility.yul\":12889:12936   */\n      mstore\n        /* \"#utility.yul\":12953:13084   */\n      tag_248\n        /* \"#utility.yul\":13079:13083   */\n      dup2\n        /* \"#utility.yul\":12953:13084   */\n      tag_114\n      jump\t// in\n    tag_248:\n        /* \"#utility.yul\":12945:13084   */\n      swap1\n      pop\n        /* \"#utility.yul\":13094:13166   */\n      tag_249\n        /* \"#utility.yul\":13162:13164   */\n      0x20\n        /* \"#utility.yul\":13151:13160   */\n      dup4\n        /* \"#utility.yul\":13147:13165   */\n      add\n        /* \"#utility.yul\":13138:13144   */\n      dup5\n        /* \"#utility.yul\":13094:13166   */\n      tag_108\n      jump\t// in\n    tag_249:\n        /* \"#utility.yul\":12644:13173   */\n      swap3\n      swap2\n      pop\n      pop\n      jump\t// out\n        /* \"#utility.yul\":13179:13344   */\n    tag_115:\n        /* \"#utility.yul\":13319:13336   */\n      0x616d6f756e7420746f2072657061790000000000000000000000000000000000\n        /* \"#utility.yul\":13315:13316   */\n      0x00\n        /* \"#utility.yul\":13307:13313   */\n      dup3\n        /* \"#utility.yul\":13303:13317   */\n      add\n        /* \"#utility.yul\":13296:13337   */\n      mstore\n        /* \"#utility.yul\":13179:13344   */\n      pop\n      jump\t// out\n        /* \"#utility.yul\":13350:13716   */\n    tag_116:\n        /* \"#utility.yul\":13492:13495   */\n      0x00\n        /* \"#utility.yul\":13513:13580   */\n      tag_252\n        /* \"#utility.yul\":13577:13579   */\n      0x0f\n        /* \"#utility.yul\":13572:13575   */\n      dup4\n        /* \"#utility.yul\":13513:13580   */\n      tag_96\n      jump\t// in\n    tag_252:\n        /* \"#utility.yul\":13506:13580   */\n      swap2\n      pop\n        /* \"#utility.yul\":13589:13682   */\n      tag_253\n        /* \"#utility.yul\":13678:13681   */\n      dup3\n        /* \"#utility.yul\":13589:13682   */\n      tag_115\n      jump\t// in\n    tag_253:\n        /* \"#utility.yul\":13707:13709   */\n      0x20\n        /* \"#utility.yul\":13702:13705   */\n      dup3\n        /* \"#utility.yul\":13698:13710   */\n      add\n        /* \"#utility.yul\":13691:13710   */\n      swap1\n      pop\n        /* \"#utility.yul\":13350:13716   */\n      swap2\n      swap1\n      pop\n      jump\t// out\n        /* \"#utility.yul\":13722:14251   */\n    tag_50:\n        /* \"#utility.yul\":13916:13920   */\n      0x00\n        /* \"#utility.yul\":13954:13956   */\n      0x40\n        /* \"#utility.yul\":13943:13952   */\n      dup3\n        /* \"#utility.yul\":13939:13957   */\n      add\n        /* \"#utility.yul\":13931:13957   */\n      swap1\n      pop\n        /* \"#utility.yul\":14003:14012   */\n      dup2\n        /* \"#utility.yul\":13997:14001   */\n      dup2\n        /* \"#utility.yul\":13993:14013   */\n      sub\n        /* \"#utility.yul\":13989:13990   */\n      0x00\n        /* \"#utility.yul\":13978:13987   */\n      dup4\n        /* \"#utility.yul\":13974:13991   */\n      add\n        /* \"#utility.yul\":13967:14014   */\n      mstore\n        /* \"#utility.yul\":14031:14162   */\n      tag_255\n        /* \"#utility.yul\":14157:14161   */\n      dup2\n        /* \"#utility.yul\":14031:14162   */\n      tag_116\n      jump\t// in\n    tag_255:\n        /* \"#utility.yul\":14023:14162   */\n      swap1\n      pop\n        /* \"#utility.yul\":14172:14244   */\n      tag_256\n        /* \"#utility.yul\":14240:14242   */\n      0x20\n        /* \"#utility.yul\":14229:14238   */\n      dup4\n        /* \"#utility.yul\":14225:14243   */\n      add\n        /* \"#utility.yul\":14216:14222   */\n      dup5\n        /* \"#utility.yul\":14172:14244   */\n      tag_108\n      jump\t// in\n    tag_256:\n        /* \"#utility.yul\":13722:14251   */\n      swap3\n      swap2\n      pop\n      pop\n      jump\t// out\n        /* \"#utility.yul\":14257:14589   */\n    tag_52:\n        /* \"#utility.yul\":14378:14382   */\n      0x00\n        /* \"#utility.yul\":14416:14418   */\n      0x40\n        /* \"#utility.yul\":14405:14414   */\n      dup3\n        /* \"#utility.yul\":14401:14419   */\n      add\n        /* \"#utility.yul\":14393:14419   */\n      swap1\n      pop\n        /* \"#utility.yul\":14429:14500   */\n      tag_258\n        /* \"#utility.yul\":14497:14498   */\n      0x00\n        /* \"#utility.yul\":14486:14495   */\n      dup4\n        /* \"#utility.yul\":14482:14499   */\n      add\n        /* \"#utility.yul\":14473:14479   */\n      dup6\n        /* \"#utility.yul\":14429:14500   */\n      tag_95\n      jump\t// in\n    tag_258:\n        /* \"#utility.yul\":14510:14582   */\n      tag_259\n        /* \"#utility.yul\":14578:14580   */\n      0x20\n        /* \"#utility.yul\":14567:14576   */\n      dup4\n        /* \"#utility.yul\":14563:14581   */\n      add\n        /* \"#utility.yul\":14554:14560   */\n      dup5\n        /* \"#utility.yul\":14510:14582   */\n      tag_108\n      jump\t// in\n    tag_259:\n        /* \"#utility.yul\":14257:14589   */\n      swap4\n      swap3\n      pop\n      pop\n      pop\n      jump\t// out\n        /* \"#utility.yul\":14595:14685   */\n    tag_117:\n        /* \"#utility.yul\":14629:14636   */\n      0x00\n        /* \"#utility.yul\":14672:14677   */\n      dup2\n        /* \"#utility.yul\":14665:14678   */\n      iszero\n        /* \"#utility.yul\":14658:14679   */\n      iszero\n        /* \"#utility.yul\":14647:14679   */\n      swap1\n      pop\n        /* \"#utility.yul\":14595:14685   */\n      swap2\n      swap1\n      pop\n      jump\t// out\n        /* \"#utility.yul\":14691:14807   */\n    tag_118:\n        /* \"#utility.yul\":14761:14782   */\n      tag_262\n        /* \"#utility.yul\":14776:14781   */\n      dup2\n        /* \"#utility.yul\":14761:14782   */\n      tag_117\n      jump\t// in\n    tag_262:\n        /* \"#utility.yul\":14754:14759   */\n      dup2\n        /* \"#utility.yul\":14751:14783   */\n      eq\n        /* \"#utility.yul\":14741:14801   */\n      tag_263\n      jumpi\n        /* \"#utility.yul\":14797:14798   */\n      0x00\n        /* \"#utility.yul\":14794:14795   */\n      dup1\n        /* \"#utility.yul\":14787:14799   */\n      revert\n        /* \"#utility.yul\":14741:14801   */\n    tag_263:\n        /* \"#utility.yul\":14691:14807   */\n      pop\n      jump\t// out\n        /* \"#utility.yul\":14813:14950   */\n    tag_119:\n        /* \"#utility.yul\":14867:14872   */\n      0x00\n        /* \"#utility.yul\":14898:14904   */\n      dup2\n        /* \"#utility.yul\":14892:14905   */\n      mload\n        /* \"#utility.yul\":14883:14905   */\n      swap1\n      pop\n        /* \"#utility.yul\":14914:14944   */\n      tag_265\n        /* \"#utility.yul\":14938:14943   */\n      dup2\n        /* \"#utility.yul\":14914:14944   */\n      tag_118\n      jump\t// in\n    tag_265:\n        /* \"#utility.yul\":14813:14950   */\n      swap3\n      swap2\n      pop\n      pop\n      jump\t// out\n        /* \"#utility.yul\":14956:15301   */\n    tag_56:\n        /* \"#utility.yul\":15023:15029   */\n      0x00\n        /* \"#utility.yul\":15072:15074   */\n      0x20\n        /* \"#utility.yul\":15060:15069   */\n      dup3\n        /* \"#utility.yul\":15051:15058   */\n      dup5\n        /* \"#utility.yul\":15047:15070   */\n      sub\n        /* \"#utility.yul\":15043:15075   */\n      slt\n        /* \"#utility.yul\":15040:15159   */\n      iszero\n      tag_267\n      jumpi\n        /* \"#utility.yul\":15078:15157   */\n      tag_268\n      tag_81\n      jump\t// in\n    tag_268:\n        /* \"#utility.yul\":15040:15159   */\n    tag_267:\n        /* \"#utility.yul\":15198:15199   */\n      0x00\n        /* \"#utility.yul\":15223:15284   */\n      tag_269\n        /* \"#utility.yul\":15276:15283   */\n      dup5\n        /* \"#utility.yul\":15267:15273   */\n      dup3\n        /* \"#utility.yul\":15256:15265   */\n      dup6\n        /* \"#utility.yul\":15252:15274   */\n      add\n        /* \"#utility.yul\":15223:15284   */\n      tag_119\n      jump\t// in\n    tag_269:\n        /* \"#utility.yul\":15213:15284   */\n      swap2\n      pop\n        /* \"#utility.yul\":15169:15294   */\n      pop\n        /* \"#utility.yul\":14956:15301   */\n      swap3\n      swap2\n      pop\n      pop\n      jump\t// out\n        /* \"#utility.yul\":15307:15405   */\n    tag_120:\n        /* \"#utility.yul\":15358:15364   */\n      0x00\n        /* \"#utility.yul\":15392:15397   */\n      dup2\n        /* \"#utility.yul\":15386:15398   */\n      mload\n        /* \"#utility.yul\":15376:15398   */\n      swap1\n      pop\n        /* \"#utility.yul\":15307:15405   */\n      swap2\n      swap1\n      pop\n      jump\t// out\n        /* \"#utility.yul\":15411:15579   */\n    tag_121:\n        /* \"#utility.yul\":15494:15505   */\n      0x00\n        /* \"#utility.yul\":15528:15534   */\n      dup3\n        /* \"#utility.yul\":15523:15526   */\n      dup3\n        /* \"#utility.yul\":15516:15535   */\n      mstore\n        /* \"#utility.yul\":15568:15572   */\n      0x20\n        /* \"#utility.yul\":15563:15566   */\n      dup3\n        /* \"#utility.yul\":15559:15573   */\n      add\n        /* \"#utility.yul\":15544:15573   */\n      swap1\n      pop\n        /* \"#utility.yul\":15411:15579   */\n      swap3\n      swap2\n      pop\n      pop\n      jump\t// out\n        /* \"#utility.yul\":15585:15892   */\n    tag_122:\n        /* \"#utility.yul\":15653:15654   */\n      0x00\n        /* \"#utility.yul\":15663:15776   */\n    tag_273:\n        /* \"#utility.yul\":15677:15683   */\n      dup4\n        /* \"#utility.yul\":15674:15675   */\n      dup2\n        /* \"#utility.yul\":15671:15684   */\n      lt\n        /* \"#utility.yul\":15663:15776   */\n      iszero\n      tag_275\n      jumpi\n        /* \"#utility.yul\":15762:15763   */\n      dup1\n        /* \"#utility.yul\":15757:15760   */\n      dup3\n        /* \"#utility.yul\":15753:15764   */\n      add\n        /* \"#utility.yul\":15747:15765   */\n      mload\n        /* \"#utility.yul\":15743:15744   */\n      dup2\n        /* \"#utility.yul\":15738:15741   */\n      dup5\n        /* \"#utility.yul\":15734:15745   */\n      add\n        /* \"#utility.yul\":15727:15766   */\n      mstore\n        /* \"#utility.yul\":15699:15701   */\n      0x20\n        /* \"#utility.yul\":15696:15697   */\n      dup2\n        /* \"#utility.yul\":15692:15702   */\n      add\n        /* \"#utility.yul\":15687:15702   */\n      swap1\n      pop\n        /* \"#utility.yul\":15663:15776   */\n      jump(tag_273)\n    tag_275:\n        /* \"#utility.yul\":15794:15800   */\n      dup4\n        /* \"#utility.yul\":15791:15792   */\n      dup2\n        /* \"#utility.yul\":15788:15801   */\n      gt\n        /* \"#utility.yul\":15785:15886   */\n      iszero\n      tag_276\n      jumpi\n        /* \"#utility.yul\":15874:15875   */\n      0x00\n        /* \"#utility.yul\":15865:15871   */\n      dup5\n        /* \"#utility.yul\":15860:15863   */\n      dup5\n        /* \"#utility.yul\":15856:15872   */\n      add\n        /* \"#utility.yul\":15849:15876   */\n      mstore\n        /* \"#utility.yul\":15785:15886   */\n    tag_276:\n        /* \"#utility.yul\":15634:15892   */\n      pop\n        /* \"#utility.yul\":15585:15892   */\n      pop\n      pop\n      pop\n      jump\t// out\n        /* \"#utility.yul\":15898:16000   */\n    tag_123:\n        /* \"#utility.yul\":15939:15945   */\n      0x00\n        /* \"#utility.yul\":15990:15992   */\n      0x1f\n        /* \"#utility.yul\":15986:15993   */\n      not\n        /* \"#utility.yul\":15981:15983   */\n      0x1f\n        /* \"#utility.yul\":15974:15979   */\n      dup4\n        /* \"#utility.yul\":15970:15984   */\n      add\n        /* \"#utility.yul\":15966:15994   */\n      and\n        /* \"#utility.yul\":15956:15994   */\n      swap1\n      pop\n        /* \"#utility.yul\":15898:16000   */\n      swap2\n      swap1\n      pop\n      jump\t// out\n        /* \"#utility.yul\":16006:16366   */\n    tag_124:\n        /* \"#utility.yul\":16092:16095   */\n      0x00\n        /* \"#utility.yul\":16120:16158   */\n      tag_279\n        /* \"#utility.yul\":16152:16157   */\n      dup3\n        /* \"#utility.yul\":16120:16158   */\n      tag_120\n      jump\t// in\n    tag_279:\n        /* \"#utility.yul\":16174:16244   */\n      tag_280\n        /* \"#utility.yul\":16237:16243   */\n      dup2\n        /* \"#utility.yul\":16232:16235   */\n      dup6\n        /* \"#utility.yul\":16174:16244   */\n      tag_121\n      jump\t// in\n    tag_280:\n        /* \"#utility.yul\":16167:16244   */\n      swap4\n      pop\n        /* \"#utility.yul\":16253:16305   */\n      tag_281\n        /* \"#utility.yul\":16298:16304   */\n      dup2\n        /* \"#utility.yul\":16293:16296   */\n      dup6\n        /* \"#utility.yul\":16286:16290   */\n      0x20\n        /* \"#utility.yul\":16279:16284   */\n      dup7\n        /* \"#utility.yul\":16275:16291   */\n      add\n        /* \"#utility.yul\":16253:16305   */\n      tag_122\n      jump\t// in\n    tag_281:\n        /* \"#utility.yul\":16330:16359   */\n      tag_282\n        /* \"#utility.yul\":16352:16358   */\n      dup2\n        /* \"#utility.yul\":16330:16359   */\n      tag_123\n      jump\t// in\n    tag_282:\n        /* \"#utility.yul\":16325:16328   */\n      dup5\n        /* \"#utility.yul\":16321:16360   */\n      add\n        /* \"#utility.yul\":16314:16360   */\n      swap2\n      pop\n        /* \"#utility.yul\":16096:16366   */\n      pop\n        /* \"#utility.yul\":16006:16366   */\n      swap3\n      swap2\n      pop\n      pop\n      jump\t// out\n        /* \"#utility.yul\":16372:17012   */\n    tag_76:\n        /* \"#utility.yul\":16567:16571   */\n      0x00\n        /* \"#utility.yul\":16605:16608   */\n      0x80\n        /* \"#utility.yul\":16594:16603   */\n      dup3\n        /* \"#utility.yul\":16590:16609   */\n      add\n        /* \"#utility.yul\":16582:16609   */\n      swap1\n      pop\n        /* \"#utility.yul\":16619:16690   */\n      tag_284\n        /* \"#utility.yul\":16687:16688   */\n      0x00\n        /* \"#utility.yul\":16676:16685   */\n      dup4\n        /* \"#utility.yul\":16672:16689   */\n      add\n        /* \"#utility.yul\":16663:16669   */\n      dup8\n        /* \"#utility.yul\":16619:16690   */\n      tag_108\n      jump\t// in\n    tag_284:\n        /* \"#utility.yul\":16700:16772   */\n      tag_285\n        /* \"#utility.yul\":16768:16770   */\n      0x20\n        /* \"#utility.yul\":16757:16766   */\n      dup4\n        /* \"#utility.yul\":16753:16771   */\n      add\n        /* \"#utility.yul\":16744:16750   */\n      dup7\n        /* \"#utility.yul\":16700:16772   */\n      tag_108\n      jump\t// in\n    tag_285:\n        /* \"#utility.yul\":16782:16854   */\n      tag_286\n        /* \"#utility.yul\":16850:16852   */\n      0x40\n        /* \"#utility.yul\":16839:16848   */\n      dup4\n        /* \"#utility.yul\":16835:16853   */\n      add\n        /* \"#utility.yul\":16826:16832   */\n      dup6\n        /* \"#utility.yul\":16782:16854   */\n      tag_95\n      jump\t// in\n    tag_286:\n        /* \"#utility.yul\":16901:16910   */\n      dup2\n        /* \"#utility.yul\":16895:16899   */\n      dup2\n        /* \"#utility.yul\":16891:16911   */\n      sub\n        /* \"#utility.yul\":16886:16888   */\n      0x60\n        /* \"#utility.yul\":16875:16884   */\n      dup4\n        /* \"#utility.yul\":16871:16889   */\n      add\n        /* \"#utility.yul\":16864:16912   */\n      mstore\n        /* \"#utility.yul\":16929:17005   */\n      tag_287\n        /* \"#utility.yul\":17000:17004   */\n      dup2\n        /* \"#utility.yul\":16991:16997   */\n      dup5\n        /* \"#utility.yul\":16929:17005   */\n      tag_124\n      jump\t// in\n    tag_287:\n        /* \"#utility.yul\":16921:17005   */\n      swap1\n      pop\n        /* \"#utility.yul\":16372:17012   */\n      swap6\n      swap5\n      pop\n      pop\n      pop\n      pop\n      pop\n      jump\t// out\n\n    auxdata: 0xa26469706673582212204848b8e36188d450e6306386134fb964d8c7720c6c63926c8f25357241cfd5c664736f6c634300080f0033\n}\n",
				"bytecode": {
					"linkReferences": {},
					"object": "608060405234801561001057600080fd5b506110dc806100206000396000f3fe608060405234801561001057600080fd5b50600436106100365760003560e01c806310d1e85c1461003b578063293ccb5014610057575b600080fd5b610055600480360381019061005091906108da565b610073565b005b610071600480360381019061006c9190610962565b6104b9565b005b60003373ffffffffffffffffffffffffffffffffffffffff16630dfe16816040518163ffffffff1660e01b8152600401602060405180830381865afa1580156100c0573d6000803e3d6000fd5b505050506040513d601f19601f820116820180604052508101906100e491906109b7565b905060003373ffffffffffffffffffffffffffffffffffffffff1663d21220a76040518163ffffffff1660e01b8152600401602060405180830381865afa158015610133573d6000803e3d6000fd5b505050506040513d601f19601f8201168201806040525081019061015791906109b7565b90506000735757371414417b8c6caad45baef941abc7d3ab3273ffffffffffffffffffffffffffffffffffffffff1663e6a4390584846040518363ffffffff1660e01b81526004016101aa9291906109f3565b602060405180830381865afa1580156101c7573d6000803e3d6000fd5b505050506040513d601f19601f820116820180604052508101906101eb91906109b7565b90508073ffffffffffffffffffffffffffffffffffffffff163373ffffffffffffffffffffffffffffffffffffffff161461025b576040517f08c379a000000000000000000000000000000000000000000000000000000000815260040161025290610a79565b60405180910390fd5b3073ffffffffffffffffffffffffffffffffffffffff168873ffffffffffffffffffffffffffffffffffffffff16146102c9576040517f08c379a00000000000000000000000000000000000000000000000000000000081526004016102c090610ae5565b60405180910390fd5b60008086868101906102db9190610b43565b91509150600060016103e56003846102f39190610bb2565b6102fd9190610c3b565b6103079190610c6c565b9050600081836103179190610c6c565b90507fdd970dd9b5bfe707922155b058a407655cb18288b807e2216442bca8ad83d6b5836040516103489190610d1d565b60405180910390a17fdd970dd9b5bfe707922155b058a407655cb18288b807e2216442bca8ad83d6b58b60405161037f9190610d97565b60405180910390a17fdd970dd9b5bfe707922155b058a407655cb18288b807e2216442bca8ad83d6b58a6040516103b69190610e11565b60405180910390a17fdd970dd9b5bfe707922155b058a407655cb18288b807e2216442bca8ad83d6b5826040516103ed9190610e8b565b60405180910390a17fdd970dd9b5bfe707922155b058a407655cb18288b807e2216442bca8ad83d6b5816040516104249190610f05565b60405180910390a18373ffffffffffffffffffffffffffffffffffffffff1663a9059cbb86836040518363ffffffff1660e01b8152600401610467929190610f33565b6020604051808303816000875af1158015610486573d6000803e3d6000fd5b505050506040513d601f19601f820116820180604052508101906104aa9190610f94565b50505050505050505050505050565b6000735757371414417b8c6caad45baef941abc7d3ab3273ffffffffffffffffffffffffffffffffffffffff1663e6a4390584730d500b1d8e8ef31e21c99d1db9a6444d3adf12706040518363ffffffff1660e01b815260040161051e9291906109f3565b602060405180830381865afa15801561053b573d6000803e3d6000fd5b505050506040513d601f19601f8201168201806040525081019061055f91906109b7565b9050600073ffffffffffffffffffffffffffffffffffffffff168173ffffffffffffffffffffffffffffffffffffffff16036105d0576040517f08c379a00000000000000000000000000000000000000000000000000000000081526004016105c790610a79565b60405180910390fd5b60008173ffffffffffffffffffffffffffffffffffffffff16630dfe16816040518163ffffffff1660e01b8152600401602060405180830381865afa15801561061d573d6000803e3d6000fd5b505050506040513d601f19601f8201168201806040525081019061064191906109b7565b905060008273ffffffffffffffffffffffffffffffffffffffff1663d21220a76040518163ffffffff1660e01b8152600401602060405180830381865afa158015610690573d6000803e3d6000fd5b505050506040513d601f19601f820116820180604052508101906106b491906109b7565b905060008273ffffffffffffffffffffffffffffffffffffffff168673ffffffffffffffffffffffffffffffffffffffff16146106f25760006106f4565b845b905060008273ffffffffffffffffffffffffffffffffffffffff168773ffffffffffffffffffffffffffffffffffffffff1614610732576000610734565b855b90506000878760405160200161074b929190610f33565b60405160208183030381529060405290508573ffffffffffffffffffffffffffffffffffffffff1663022c0d9f848430856040518563ffffffff1660e01b815260040161079b949392919061105a565b600060405180830381600087803b1580156107b557600080fd5b505af11580156107c9573d6000803e3d6000fd5b505050505050505050505050565b600080fd5b600080fd5b600073ffffffffffffffffffffffffffffffffffffffff82169050919050565b600061080c826107e1565b9050919050565b61081c81610801565b811461082757600080fd5b50565b60008135905061083981610813565b92915050565b6000819050919050565b6108528161083f565b811461085d57600080fd5b50565b60008135905061086f81610849565b92915050565b600080fd5b600080fd5b600080fd5b60008083601f84011261089a57610899610875565b5b8235905067ffffffffffffffff8111156108b7576108b661087a565b5b6020830191508360018202830111156108d3576108d261087f565b5b9250929050565b6000806000806000608086880312156108f6576108f56107d7565b5b60006109048882890161082a565b955050602061091588828901610860565b945050604061092688828901610860565b935050606086013567ffffffffffffffff811115610947576109466107dc565b5b61095388828901610884565b92509250509295509295909350565b60008060408385031215610979576109786107d7565b5b60006109878582860161082a565b925050602061099885828601610860565b9150509250929050565b6000815190506109b181610813565b92915050565b6000602082840312156109cd576109cc6107d7565b5b60006109db848285016109a2565b91505092915050565b6109ed81610801565b82525050565b6000604082019050610a0860008301856109e4565b610a1560208301846109e4565b9392505050565b600082825260208201905092915050565b7f2170616972000000000000000000000000000000000000000000000000000000600082015250565b6000610a63600583610a1c565b9150610a6e82610a2d565b602082019050919050565b60006020820190508181036000830152610a9281610a56565b9050919050565b7f2173656e64657200000000000000000000000000000000000000000000000000600082015250565b6000610acf600783610a1c565b9150610ada82610a99565b602082019050919050565b60006020820190508181036000830152610afe81610ac2565b9050919050565b6000610b10826107e1565b9050919050565b610b2081610b05565b8114610b2b57600080fd5b50565b600081359050610b3d81610b17565b92915050565b60008060408385031215610b5a57610b596107d7565b5b6000610b6885828601610b2e565b9250506020610b7985828601610860565b9150509250929050565b7f4e487b7100000000000000000000000000000000000000000000000000000000600052601160045260246000fd5b6000610bbd8261083f565b9150610bc88361083f565b9250817fffffffffffffffffffffffffffffffffffffffffffffffffffffffffffffffff0483118215151615610c0157610c00610b83565b5b828202905092915050565b7f4e487b7100000000000000000000000000000000000000000000000000000000600052601260045260246000fd5b6000610c468261083f565b9150610c518361083f565b925082610c6157610c60610c0c565b5b828204905092915050565b6000610c778261083f565b9150610c828361083f565b9250827fffffffffffffffffffffffffffffffffffffffffffffffffffffffffffffffff03821115610cb757610cb6610b83565b5b828201905092915050565b7f616d6f756e740000000000000000000000000000000000000000000000000000600082015250565b6000610cf8600683610a1c565b9150610d0382610cc2565b602082019050919050565b610d178161083f565b82525050565b60006040820190508181036000830152610d3681610ceb565b9050610d456020830184610d0e565b92915050565b7f616d6f756e743000000000000000000000000000000000000000000000000000600082015250565b6000610d81600783610a1c565b9150610d8c82610d4b565b602082019050919050565b60006040820190508181036000830152610db081610d74565b9050610dbf6020830184610d0e565b92915050565b7f616d6f756e743100000000000000000000000000000000000000000000000000600082015250565b6000610dfb600783610a1c565b9150610e0682610dc5565b602082019050919050565b60006040820190508181036000830152610e2a81610dee565b9050610e396020830184610d0e565b92915050565b7f6665650000000000000000000000000000000000000000000000000000000000600082015250565b6000610e75600383610a1c565b9150610e8082610e3f565b602082019050919050565b60006040820190508181036000830152610ea481610e68565b9050610eb36020830184610d0e565b92915050565b7f616d6f756e7420746f2072657061790000000000000000000000000000000000600082015250565b6000610eef600f83610a1c565b9150610efa82610eb9565b602082019050919050565b60006040820190508181036000830152610f1e81610ee2565b9050610f2d6020830184610d0e565b92915050565b6000604082019050610f4860008301856109e4565b610f556020830184610d0e565b9392505050565b60008115159050919050565b610f7181610f5c565b8114610f7c57600080fd5b50565b600081519050610f8e81610f68565b92915050565b600060208284031215610faa57610fa96107d7565b5b6000610fb884828501610f7f565b91505092915050565b600081519050919050565b600082825260208201905092915050565b60005b83811015610ffb578082015181840152602081019050610fe0565b8381111561100a576000848401525b50505050565b6000601f19601f8301169050919050565b600061102c82610fc1565b6110368185610fcc565b9350611046818560208601610fdd565b61104f81611010565b840191505092915050565b600060808201905061106f6000830187610d0e565b61107c6020830186610d0e565b61108960408301856109e4565b818103606083015261109b8184611021565b90509594505050505056fea26469706673582212204848b8e36188d450e6306386134fb964d8c7720c6c63926c8f25357241cfd5c664736f6c634300080f0033",
					"opcodes": "PUSH1 0x80 PUSH1 0x40 MSTORE CALLVALUE DUP1 ISZERO PUSH2 0x10 JUMPI PUSH1 0x0 DUP1 REVERT JUMPDEST POP PUSH2 0x10DC DUP1 PUSH2 0x20 PUSH1 0x0 CODECOPY PUSH1 0x0 RETURN INVALID PUSH1 0x80 PUSH1 0x40 MSTORE CALLVALUE DUP1 ISZERO PUSH2 0x10 JUMPI PUSH1 0x0 DUP1 REVERT JUMPDEST POP PUSH1 0x4 CALLDATASIZE LT PUSH2 0x36 JUMPI PUSH1 0x0 CALLDATALOAD PUSH1 0xE0 SHR DUP1 PUSH4 0x10D1E85C EQ PUSH2 0x3B JUMPI DUP1 PUSH4 0x293CCB50 EQ PUSH2 0x57 JUMPI JUMPDEST PUSH1 0x0 DUP1 REVERT JUMPDEST PUSH2 0x55 PUSH1 0x4 DUP1 CALLDATASIZE SUB DUP2 ADD SWAP1 PUSH2 0x50 SWAP2 SWAP1 PUSH2 0x8DA JUMP JUMPDEST PUSH2 0x73 JUMP JUMPDEST STOP JUMPDEST PUSH2 0x71 PUSH1 0x4 DUP1 CALLDATASIZE SUB DUP2 ADD SWAP1 PUSH2 0x6C SWAP2 SWAP1 PUSH2 0x962 JUMP JUMPDEST PUSH2 0x4B9 JUMP JUMPDEST STOP JUMPDEST PUSH1 0x0 CALLER PUSH20 0xFFFFFFFFFFFFFFFFFFFFFFFFFFFFFFFFFFFFFFFF AND PUSH4 0xDFE1681 PUSH1 0x40 MLOAD DUP2 PUSH4 0xFFFFFFFF AND PUSH1 0xE0 SHL DUP2 MSTORE PUSH1 0x4 ADD PUSH1 0x20 PUSH1 0x40 MLOAD DUP1 DUP4 SUB DUP2 DUP7 GAS STATICCALL ISZERO DUP1 ISZERO PUSH2 0xC0 JUMPI RETURNDATASIZE PUSH1 0x0 DUP1 RETURNDATACOPY RETURNDATASIZE PUSH1 0x0 REVERT JUMPDEST POP POP POP POP PUSH1 0x40 MLOAD RETURNDATASIZE PUSH1 0x1F NOT PUSH1 0x1F DUP3 ADD AND DUP3 ADD DUP1 PUSH1 0x40 MSTORE POP DUP2 ADD SWAP1 PUSH2 0xE4 SWAP2 SWAP1 PUSH2 0x9B7 JUMP JUMPDEST SWAP1 POP PUSH1 0x0 CALLER PUSH20 0xFFFFFFFFFFFFFFFFFFFFFFFFFFFFFFFFFFFFFFFF AND PUSH4 0xD21220A7 PUSH1 0x40 MLOAD DUP2 PUSH4 0xFFFFFFFF AND PUSH1 0xE0 SHL DUP2 MSTORE PUSH1 0x4 ADD PUSH1 0x20 PUSH1 0x40 MLOAD DUP1 DUP4 SUB DUP2 DUP7 GAS STATICCALL ISZERO DUP1 ISZERO PUSH2 0x133 JUMPI RETURNDATASIZE PUSH1 0x0 DUP1 RETURNDATACOPY RETURNDATASIZE PUSH1 0x0 REVERT JUMPDEST POP POP POP POP PUSH1 0x40 MLOAD RETURNDATASIZE PUSH1 0x1F NOT PUSH1 0x1F DUP3 ADD AND DUP3 ADD DUP1 PUSH1 0x40 MSTORE POP DUP2 ADD SWAP1 PUSH2 0x157 SWAP2 SWAP1 PUSH2 0x9B7 JUMP JUMPDEST SWAP1 POP PUSH1 0x0 PUSH20 0x5757371414417B8C6CAAD45BAEF941ABC7D3AB32 PUSH20 0xFFFFFFFFFFFFFFFFFFFFFFFFFFFFFFFFFFFFFFFF AND PUSH4 0xE6A43905 DUP5 DUP5 PUSH1 0x40 MLOAD DUP4 PUSH4 0xFFFFFFFF AND PUSH1 0xE0 SHL DUP2 MSTORE PUSH1 0x4 ADD PUSH2 0x1AA SWAP3 SWAP2 SWAP1 PUSH2 0x9F3 JUMP JUMPDEST PUSH1 0x20 PUSH1 0x40 MLOAD DUP1 DUP4 SUB DUP2 DUP7 GAS STATICCALL ISZERO DUP1 ISZERO PUSH2 0x1C7 JUMPI RETURNDATASIZE PUSH1 0x0 DUP1 RETURNDATACOPY RETURNDATASIZE PUSH1 0x0 REVERT JUMPDEST POP POP POP POP PUSH1 0x40 MLOAD RETURNDATASIZE PUSH1 0x1F NOT PUSH1 0x1F DUP3 ADD AND DUP3 ADD DUP1 PUSH1 0x40 MSTORE POP DUP2 ADD SWAP1 PUSH2 0x1EB SWAP2 SWAP1 PUSH2 0x9B7 JUMP JUMPDEST SWAP1 POP DUP1 PUSH20 0xFFFFFFFFFFFFFFFFFFFFFFFFFFFFFFFFFFFFFFFF AND CALLER PUSH20 0xFFFFFFFFFFFFFFFFFFFFFFFFFFFFFFFFFFFFFFFF AND EQ PUSH2 0x25B JUMPI PUSH1 0x40 MLOAD PUSH32 0x8C379A000000000000000000000000000000000000000000000000000000000 DUP2 MSTORE PUSH1 0x4 ADD PUSH2 0x252 SWAP1 PUSH2 0xA79 JUMP JUMPDEST PUSH1 0x40 MLOAD DUP1 SWAP2 SUB SWAP1 REVERT JUMPDEST ADDRESS PUSH20 0xFFFFFFFFFFFFFFFFFFFFFFFFFFFFFFFFFFFFFFFF AND DUP9 PUSH20 0xFFFFFFFFFFFFFFFFFFFFFFFFFFFFFFFFFFFFFFFF AND EQ PUSH2 0x2C9 JUMPI PUSH1 0x40 MLOAD PUSH32 0x8C379A000000000000000000000000000000000000000000000000000000000 DUP2 MSTORE PUSH1 0x4 ADD PUSH2 0x2C0 SWAP1 PUSH2 0xAE5 JUMP JUMPDEST PUSH1 0x40 MLOAD DUP1 SWAP2 SUB SWAP1 REVERT JUMPDEST PUSH1 0x0 DUP1 DUP7 DUP7 DUP2 ADD SWAP1 PUSH2 0x2DB SWAP2 SWAP1 PUSH2 0xB43 JUMP JUMPDEST SWAP2 POP SWAP2 POP PUSH1 0x0 PUSH1 0x1 PUSH2 0x3E5 PUSH1 0x3 DUP5 PUSH2 0x2F3 SWAP2 SWAP1 PUSH2 0xBB2 JUMP JUMPDEST PUSH2 0x2FD SWAP2 SWAP1 PUSH2 0xC3B JUMP JUMPDEST PUSH2 0x307 SWAP2 SWAP1 PUSH2 0xC6C JUMP JUMPDEST SWAP1 POP PUSH1 0x0 DUP2 DUP4 PUSH2 0x317 SWAP2 SWAP1 PUSH2 0xC6C JUMP JUMPDEST SWAP1 POP PUSH32 0xDD970DD9B5BFE707922155B058A407655CB18288B807E2216442BCA8AD83D6B5 DUP4 PUSH1 0x40 MLOAD PUSH2 0x348 SWAP2 SWAP1 PUSH2 0xD1D JUMP JUMPDEST PUSH1 0x40 MLOAD DUP1 SWAP2 SUB SWAP1 LOG1 PUSH32 0xDD970DD9B5BFE707922155B058A407655CB18288B807E2216442BCA8AD83D6B5 DUP12 PUSH1 0x40 MLOAD PUSH2 0x37F SWAP2 SWAP1 PUSH2 0xD97 JUMP JUMPDEST PUSH1 0x40 MLOAD DUP1 SWAP2 SUB SWAP1 LOG1 PUSH32 0xDD970DD9B5BFE707922155B058A407655CB18288B807E2216442BCA8AD83D6B5 DUP11 PUSH1 0x40 MLOAD PUSH2 0x3B6 SWAP2 SWAP1 PUSH2 0xE11 JUMP JUMPDEST PUSH1 0x40 MLOAD DUP1 SWAP2 SUB SWAP1 LOG1 PUSH32 0xDD970DD9B5BFE707922155B058A407655CB18288B807E2216442BCA8AD83D6B5 DUP3 PUSH1 0x40 MLOAD PUSH2 0x3ED SWAP2 SWAP1 PUSH2 0xE8B JUMP JUMPDEST PUSH1 0x40 MLOAD DUP1 SWAP2 SUB SWAP1 LOG1 PUSH32 0xDD970DD9B5BFE707922155B058A407655CB18288B807E2216442BCA8AD83D6B5 DUP2 PUSH1 0x40 MLOAD PUSH2 0x424 SWAP2 SWAP1 PUSH2 0xF05 JUMP JUMPDEST PUSH1 0x40 MLOAD DUP1 SWAP2 SUB SWAP1 LOG1 DUP4 PUSH20 0xFFFFFFFFFFFFFFFFFFFFFFFFFFFFFFFFFFFFFFFF AND PUSH4 0xA9059CBB DUP7 DUP4 PUSH1 0x40 MLOAD DUP4 PUSH4 0xFFFFFFFF AND PUSH1 0xE0 SHL DUP2 MSTORE PUSH1 0x4 ADD PUSH2 0x467 SWAP3 SWAP2 SWAP1 PUSH2 0xF33 JUMP JUMPDEST PUSH1 0x20 PUSH1 0x40 MLOAD DUP1 DUP4 SUB DUP2 PUSH1 0x0 DUP8 GAS CALL ISZERO DUP1 ISZERO PUSH2 0x486 JUMPI RETURNDATASIZE PUSH1 0x0 DUP1 RETURNDATACOPY RETURNDATASIZE PUSH1 0x0 REVERT JUMPDEST POP POP POP POP PUSH1 0x40 MLOAD RETURNDATASIZE PUSH1 0x1F NOT PUSH1 0x1F DUP3 ADD AND DUP3 ADD DUP1 PUSH1 0x40 MSTORE POP DUP2 ADD SWAP1 PUSH2 0x4AA SWAP2 SWAP1 PUSH2 0xF94 JUMP JUMPDEST POP POP POP POP POP POP POP POP POP POP POP POP POP JUMP JUMPDEST PUSH1 0x0 PUSH20 0x5757371414417B8C6CAAD45BAEF941ABC7D3AB32 PUSH20 0xFFFFFFFFFFFFFFFFFFFFFFFFFFFFFFFFFFFFFFFF AND PUSH4 0xE6A43905 DUP5 PUSH20 0xD500B1D8E8EF31E21C99D1DB9A6444D3ADF1270 PUSH1 0x40 MLOAD DUP4 PUSH4 0xFFFFFFFF AND PUSH1 0xE0 SHL DUP2 MSTORE PUSH1 0x4 ADD PUSH2 0x51E SWAP3 SWAP2 SWAP1 PUSH2 0x9F3 JUMP JUMPDEST PUSH1 0x20 PUSH1 0x40 MLOAD DUP1 DUP4 SUB DUP2 DUP7 GAS STATICCALL ISZERO DUP1 ISZERO PUSH2 0x53B JUMPI RETURNDATASIZE PUSH1 0x0 DUP1 RETURNDATACOPY RETURNDATASIZE PUSH1 0x0 REVERT JUMPDEST POP POP POP POP PUSH1 0x40 MLOAD RETURNDATASIZE PUSH1 0x1F NOT PUSH1 0x1F DUP3 ADD AND DUP3 ADD DUP1 PUSH1 0x40 MSTORE POP DUP2 ADD SWAP1 PUSH2 0x55F SWAP2 SWAP1 PUSH2 0x9B7 JUMP JUMPDEST SWAP1 POP PUSH1 0x0 PUSH20 0xFFFFFFFFFFFFFFFFFFFFFFFFFFFFFFFFFFFFFFFF AND DUP2 PUSH20 0xFFFFFFFFFFFFFFFFFFFFFFFFFFFFFFFFFFFFFFFF AND SUB PUSH2 0x5D0 JUMPI PUSH1 0x40 MLOAD PUSH32 0x8C379A000000000000000000000000000000000000000000000000000000000 DUP2 MSTORE PUSH1 0x4 ADD PUSH2 0x5C7 SWAP1 PUSH2 0xA79 JUMP JUMPDEST PUSH1 0x40 MLOAD DUP1 SWAP2 SUB SWAP1 REVERT JUMPDEST PUSH1 0x0 DUP2 PUSH20 0xFFFFFFFFFFFFFFFFFFFFFFFFFFFFFFFFFFFFFFFF AND PUSH4 0xDFE1681 PUSH1 0x40 MLOAD DUP2 PUSH4 0xFFFFFFFF AND PUSH1 0xE0 SHL DUP2 MSTORE PUSH1 0x4 ADD PUSH1 0x20 PUSH1 0x40 MLOAD DUP1 DUP4 SUB DUP2 DUP7 GAS STATICCALL ISZERO DUP1 ISZERO PUSH2 0x61D JUMPI RETURNDATASIZE PUSH1 0x0 DUP1 RETURNDATACOPY RETURNDATASIZE PUSH1 0x0 REVERT JUMPDEST POP POP POP POP PUSH1 0x40 MLOAD RETURNDATASIZE PUSH1 0x1F NOT PUSH1 0x1F DUP3 ADD AND DUP3 ADD DUP1 PUSH1 0x40 MSTORE POP DUP2 ADD SWAP1 PUSH2 0x641 SWAP2 SWAP1 PUSH2 0x9B7 JUMP JUMPDEST SWAP1 POP PUSH1 0x0 DUP3 PUSH20 0xFFFFFFFFFFFFFFFFFFFFFFFFFFFFFFFFFFFFFFFF AND PUSH4 0xD21220A7 PUSH1 0x40 MLOAD DUP2 PUSH4 0xFFFFFFFF AND PUSH1 0xE0 SHL DUP2 MSTORE PUSH1 0x4 ADD PUSH1 0x20 PUSH1 0x40 MLOAD DUP1 DUP4 SUB DUP2 DUP7 GAS STATICCALL ISZERO DUP1 ISZERO PUSH2 0x690 JUMPI RETURNDATASIZE PUSH1 0x0 DUP1 RETURNDATACOPY RETURNDATASIZE PUSH1 0x0 REVERT JUMPDEST POP POP POP POP PUSH1 0x40 MLOAD RETURNDATASIZE PUSH1 0x1F NOT PUSH1 0x1F DUP3 ADD AND DUP3 ADD DUP1 PUSH1 0x40 MSTORE POP DUP2 ADD SWAP1 PUSH2 0x6B4 SWAP2 SWAP1 PUSH2 0x9B7 JUMP JUMPDEST SWAP1 POP PUSH1 0x0 DUP3 PUSH20 0xFFFFFFFFFFFFFFFFFFFFFFFFFFFFFFFFFFFFFFFF AND DUP7 PUSH20 0xFFFFFFFFFFFFFFFFFFFFFFFFFFFFFFFFFFFFFFFF AND EQ PUSH2 0x6F2 JUMPI PUSH1 0x0 PUSH2 0x6F4 JUMP JUMPDEST DUP5 JUMPDEST SWAP1 POP PUSH1 0x0 DUP3 PUSH20 0xFFFFFFFFFFFFFFFFFFFFFFFFFFFFFFFFFFFFFFFF AND DUP8 PUSH20 0xFFFFFFFFFFFFFFFFFFFFFFFFFFFFFFFFFFFFFFFF AND EQ PUSH2 0x732 JUMPI PUSH1 0x0 PUSH2 0x734 JUMP JUMPDEST DUP6 JUMPDEST SWAP1 POP PUSH1 0x0 DUP8 DUP8 PUSH1 0x40 MLOAD PUSH1 0x20 ADD PUSH2 0x74B SWAP3 SWAP2 SWAP1 PUSH2 0xF33 JUMP JUMPDEST PUSH1 0x40 MLOAD PUSH1 0x20 DUP2 DUP4 SUB SUB DUP2 MSTORE SWAP1 PUSH1 0x40 MSTORE SWAP1 POP DUP6 PUSH20 0xFFFFFFFFFFFFFFFFFFFFFFFFFFFFFFFFFFFFFFFF AND PUSH4 0x22C0D9F DUP5 DUP5 ADDRESS DUP6 PUSH1 0x40 MLOAD DUP6 PUSH4 0xFFFFFFFF AND PUSH1 0xE0 SHL DUP2 MSTORE PUSH1 0x4 ADD PUSH2 0x79B SWAP5 SWAP4 SWAP3 SWAP2 SWAP1 PUSH2 0x105A JUMP JUMPDEST PUSH1 0x0 PUSH1 0x40 MLOAD DUP1 DUP4 SUB DUP2 PUSH1 0x0 DUP8 DUP1 EXTCODESIZE ISZERO DUP1 ISZERO PUSH2 0x7B5 JUMPI PUSH1 0x0 DUP1 REVERT JUMPDEST POP GAS CALL ISZERO DUP1 ISZERO PUSH2 0x7C9 JUMPI RETURNDATASIZE PUSH1 0x0 DUP1 RETURNDATACOPY RETURNDATASIZE PUSH1 0x0 REVERT JUMPDEST POP POP POP POP POP POP POP POP POP POP POP POP JUMP JUMPDEST PUSH1 0x0 DUP1 REVERT JUMPDEST PUSH1 0x0 DUP1 REVERT JUMPDEST PUSH1 0x0 PUSH20 0xFFFFFFFFFFFFFFFFFFFFFFFFFFFFFFFFFFFFFFFF DUP3 AND SWAP1 POP SWAP2 SWAP1 POP JUMP JUMPDEST PUSH1 0x0 PUSH2 0x80C DUP3 PUSH2 0x7E1 JUMP JUMPDEST SWAP1 POP SWAP2 SWAP1 POP JUMP JUMPDEST PUSH2 0x81C DUP2 PUSH2 0x801 JUMP JUMPDEST DUP2 EQ PUSH2 0x827 JUMPI PUSH1 0x0 DUP1 REVERT JUMPDEST POP JUMP JUMPDEST PUSH1 0x0 DUP2 CALLDATALOAD SWAP1 POP PUSH2 0x839 DUP2 PUSH2 0x813 JUMP JUMPDEST SWAP3 SWAP2 POP POP JUMP JUMPDEST PUSH1 0x0 DUP2 SWAP1 POP SWAP2 SWAP1 POP JUMP JUMPDEST PUSH2 0x852 DUP2 PUSH2 0x83F JUMP JUMPDEST DUP2 EQ PUSH2 0x85D JUMPI PUSH1 0x0 DUP1 REVERT JUMPDEST POP JUMP JUMPDEST PUSH1 0x0 DUP2 CALLDATALOAD SWAP1 POP PUSH2 0x86F DUP2 PUSH2 0x849 JUMP JUMPDEST SWAP3 SWAP2 POP POP JUMP JUMPDEST PUSH1 0x0 DUP1 REVERT JUMPDEST PUSH1 0x0 DUP1 REVERT JUMPDEST PUSH1 0x0 DUP1 REVERT JUMPDEST PUSH1 0x0 DUP1 DUP4 PUSH1 0x1F DUP5 ADD SLT PUSH2 0x89A JUMPI PUSH2 0x899 PUSH2 0x875 JUMP JUMPDEST JUMPDEST DUP3 CALLDATALOAD SWAP1 POP PUSH8 0xFFFFFFFFFFFFFFFF DUP2 GT ISZERO PUSH2 0x8B7 JUMPI PUSH2 0x8B6 PUSH2 0x87A JUMP JUMPDEST JUMPDEST PUSH1 0x20 DUP4 ADD SWAP2 POP DUP4 PUSH1 0x1 DUP3 MUL DUP4 ADD GT ISZERO PUSH2 0x8D3 JUMPI PUSH2 0x8D2 PUSH2 0x87F JUMP JUMPDEST JUMPDEST SWAP3 POP SWAP3 SWAP1 POP JUMP JUMPDEST PUSH1 0x0 DUP1 PUSH1 0x0 DUP1 PUSH1 0x0 PUSH1 0x80 DUP7 DUP9 SUB SLT ISZERO PUSH2 0x8F6 JUMPI PUSH2 0x8F5 PUSH2 0x7D7 JUMP JUMPDEST JUMPDEST PUSH1 0x0 PUSH2 0x904 DUP9 DUP3 DUP10 ADD PUSH2 0x82A JUMP JUMPDEST SWAP6 POP POP PUSH1 0x20 PUSH2 0x915 DUP9 DUP3 DUP10 ADD PUSH2 0x860 JUMP JUMPDEST SWAP5 POP POP PUSH1 0x40 PUSH2 0x926 DUP9 DUP3 DUP10 ADD PUSH2 0x860 JUMP JUMPDEST SWAP4 POP POP PUSH1 0x60 DUP7 ADD CALLDATALOAD PUSH8 0xFFFFFFFFFFFFFFFF DUP2 GT ISZERO PUSH2 0x947 JUMPI PUSH2 0x946 PUSH2 0x7DC JUMP JUMPDEST JUMPDEST PUSH2 0x953 DUP9 DUP3 DUP10 ADD PUSH2 0x884 JUMP JUMPDEST SWAP3 POP SWAP3 POP POP SWAP3 SWAP6 POP SWAP3 SWAP6 SWAP1 SWAP4 POP JUMP JUMPDEST PUSH1 0x0 DUP1 PUSH1 0x40 DUP4 DUP6 SUB SLT ISZERO PUSH2 0x979 JUMPI PUSH2 0x978 PUSH2 0x7D7 JUMP JUMPDEST JUMPDEST PUSH1 0x0 PUSH2 0x987 DUP6 DUP3 DUP7 ADD PUSH2 0x82A JUMP JUMPDEST SWAP3 POP POP PUSH1 0x20 PUSH2 0x998 DUP6 DUP3 DUP7 ADD PUSH2 0x860 JUMP JUMPDEST SWAP2 POP POP SWAP3 POP SWAP3 SWAP1 POP JUMP JUMPDEST PUSH1 0x0 DUP2 MLOAD SWAP1 POP PUSH2 0x9B1 DUP2 PUSH2 0x813 JUMP JUMPDEST SWAP3 SWAP2 POP POP JUMP JUMPDEST PUSH1 0x0 PUSH1 0x20 DUP3 DUP5 SUB SLT ISZERO PUSH2 0x9CD JUMPI PUSH2 0x9CC PUSH2 0x7D7 JUMP JUMPDEST JUMPDEST PUSH1 0x0 PUSH2 0x9DB DUP5 DUP3 DUP6 ADD PUSH2 0x9A2 JUMP JUMPDEST SWAP2 POP POP SWAP3 SWAP2 POP POP JUMP JUMPDEST PUSH2 0x9ED DUP2 PUSH2 0x801 JUMP JUMPDEST DUP3 MSTORE POP POP JUMP JUMPDEST PUSH1 0x0 PUSH1 0x40 DUP3 ADD SWAP1 POP PUSH2 0xA08 PUSH1 0x0 DUP4 ADD DUP6 PUSH2 0x9E4 JUMP JUMPDEST PUSH2 0xA15 PUSH1 0x20 DUP4 ADD DUP5 PUSH2 0x9E4 JUMP JUMPDEST SWAP4 SWAP3 POP POP POP JUMP JUMPDEST PUSH1 0x0 DUP3 DUP3 MSTORE PUSH1 0x20 DUP3 ADD SWAP1 POP SWAP3 SWAP2 POP POP JUMP JUMPDEST PUSH32 0x2170616972000000000000000000000000000000000000000000000000000000 PUSH1 0x0 DUP3 ADD MSTORE POP JUMP JUMPDEST PUSH1 0x0 PUSH2 0xA63 PUSH1 0x5 DUP4 PUSH2 0xA1C JUMP JUMPDEST SWAP2 POP PUSH2 0xA6E DUP3 PUSH2 0xA2D JUMP JUMPDEST PUSH1 0x20 DUP3 ADD SWAP1 POP SWAP2 SWAP1 POP JUMP JUMPDEST PUSH1 0x0 PUSH1 0x20 DUP3 ADD SWAP1 POP DUP2 DUP2 SUB PUSH1 0x0 DUP4 ADD MSTORE PUSH2 0xA92 DUP2 PUSH2 0xA56 JUMP JUMPDEST SWAP1 POP SWAP2 SWAP1 POP JUMP JUMPDEST PUSH32 0x2173656E64657200000000000000000000000000000000000000000000000000 PUSH1 0x0 DUP3 ADD MSTORE POP JUMP JUMPDEST PUSH1 0x0 PUSH2 0xACF PUSH1 0x7 DUP4 PUSH2 0xA1C JUMP JUMPDEST SWAP2 POP PUSH2 0xADA DUP3 PUSH2 0xA99 JUMP JUMPDEST PUSH1 0x20 DUP3 ADD SWAP1 POP SWAP2 SWAP1 POP JUMP JUMPDEST PUSH1 0x0 PUSH1 0x20 DUP3 ADD SWAP1 POP DUP2 DUP2 SUB PUSH1 0x0 DUP4 ADD MSTORE PUSH2 0xAFE DUP2 PUSH2 0xAC2 JUMP JUMPDEST SWAP1 POP SWAP2 SWAP1 POP JUMP JUMPDEST PUSH1 0x0 PUSH2 0xB10 DUP3 PUSH2 0x7E1 JUMP JUMPDEST SWAP1 POP SWAP2 SWAP1 POP JUMP JUMPDEST PUSH2 0xB20 DUP2 PUSH2 0xB05 JUMP JUMPDEST DUP2 EQ PUSH2 0xB2B JUMPI PUSH1 0x0 DUP1 REVERT JUMPDEST POP JUMP JUMPDEST PUSH1 0x0 DUP2 CALLDATALOAD SWAP1 POP PUSH2 0xB3D DUP2 PUSH2 0xB17 JUMP JUMPDEST SWAP3 SWAP2 POP POP JUMP JUMPDEST PUSH1 0x0 DUP1 PUSH1 0x40 DUP4 DUP6 SUB SLT ISZERO PUSH2 0xB5A JUMPI PUSH2 0xB59 PUSH2 0x7D7 JUMP JUMPDEST JUMPDEST PUSH1 0x0 PUSH2 0xB68 DUP6 DUP3 DUP7 ADD PUSH2 0xB2E JUMP JUMPDEST SWAP3 POP POP PUSH1 0x20 PUSH2 0xB79 DUP6 DUP3 DUP7 ADD PUSH2 0x860 JUMP JUMPDEST SWAP2 POP POP SWAP3 POP SWAP3 SWAP1 POP JUMP JUMPDEST PUSH32 0x4E487B7100000000000000000000000000000000000000000000000000000000 PUSH1 0x0 MSTORE PUSH1 0x11 PUSH1 0x4 MSTORE PUSH1 0x24 PUSH1 0x0 REVERT JUMPDEST PUSH1 0x0 PUSH2 0xBBD DUP3 PUSH2 0x83F JUMP JUMPDEST SWAP2 POP PUSH2 0xBC8 DUP4 PUSH2 0x83F JUMP JUMPDEST SWAP3 POP DUP2 PUSH32 0xFFFFFFFFFFFFFFFFFFFFFFFFFFFFFFFFFFFFFFFFFFFFFFFFFFFFFFFFFFFFFFFF DIV DUP4 GT DUP3 ISZERO ISZERO AND ISZERO PUSH2 0xC01 JUMPI PUSH2 0xC00 PUSH2 0xB83 JUMP JUMPDEST JUMPDEST DUP3 DUP3 MUL SWAP1 POP SWAP3 SWAP2 POP POP JUMP JUMPDEST PUSH32 0x4E487B7100000000000000000000000000000000000000000000000000000000 PUSH1 0x0 MSTORE PUSH1 0x12 PUSH1 0x4 MSTORE PUSH1 0x24 PUSH1 0x0 REVERT JUMPDEST PUSH1 0x0 PUSH2 0xC46 DUP3 PUSH2 0x83F JUMP JUMPDEST SWAP2 POP PUSH2 0xC51 DUP4 PUSH2 0x83F JUMP JUMPDEST SWAP3 POP DUP3 PUSH2 0xC61 JUMPI PUSH2 0xC60 PUSH2 0xC0C JUMP JUMPDEST JUMPDEST DUP3 DUP3 DIV SWAP1 POP SWAP3 SWAP2 POP POP JUMP JUMPDEST PUSH1 0x0 PUSH2 0xC77 DUP3 PUSH2 0x83F JUMP JUMPDEST SWAP2 POP PUSH2 0xC82 DUP4 PUSH2 0x83F JUMP JUMPDEST SWAP3 POP DUP3 PUSH32 0xFFFFFFFFFFFFFFFFFFFFFFFFFFFFFFFFFFFFFFFFFFFFFFFFFFFFFFFFFFFFFFFF SUB DUP3 GT ISZERO PUSH2 0xCB7 JUMPI PUSH2 0xCB6 PUSH2 0xB83 JUMP JUMPDEST JUMPDEST DUP3 DUP3 ADD SWAP1 POP SWAP3 SWAP2 POP POP JUMP JUMPDEST PUSH32 0x616D6F756E740000000000000000000000000000000000000000000000000000 PUSH1 0x0 DUP3 ADD MSTORE POP JUMP JUMPDEST PUSH1 0x0 PUSH2 0xCF8 PUSH1 0x6 DUP4 PUSH2 0xA1C JUMP JUMPDEST SWAP2 POP PUSH2 0xD03 DUP3 PUSH2 0xCC2 JUMP JUMPDEST PUSH1 0x20 DUP3 ADD SWAP1 POP SWAP2 SWAP1 POP JUMP JUMPDEST PUSH2 0xD17 DUP2 PUSH2 0x83F JUMP JUMPDEST DUP3 MSTORE POP POP JUMP JUMPDEST PUSH1 0x0 PUSH1 0x40 DUP3 ADD SWAP1 POP DUP2 DUP2 SUB PUSH1 0x0 DUP4 ADD MSTORE PUSH2 0xD36 DUP2 PUSH2 0xCEB JUMP JUMPDEST SWAP1 POP PUSH2 0xD45 PUSH1 0x20 DUP4 ADD DUP5 PUSH2 0xD0E JUMP JUMPDEST SWAP3 SWAP2 POP POP JUMP JUMPDEST PUSH32 0x616D6F756E743000000000000000000000000000000000000000000000000000 PUSH1 0x0 DUP3 ADD MSTORE POP JUMP JUMPDEST PUSH1 0x0 PUSH2 0xD81 PUSH1 0x7 DUP4 PUSH2 0xA1C JUMP JUMPDEST SWAP2 POP PUSH2 0xD8C DUP3 PUSH2 0xD4B JUMP JUMPDEST PUSH1 0x20 DUP3 ADD SWAP1 POP SWAP2 SWAP1 POP JUMP JUMPDEST PUSH1 0x0 PUSH1 0x40 DUP3 ADD SWAP1 POP DUP2 DUP2 SUB PUSH1 0x0 DUP4 ADD MSTORE PUSH2 0xDB0 DUP2 PUSH2 0xD74 JUMP JUMPDEST SWAP1 POP PUSH2 0xDBF PUSH1 0x20 DUP4 ADD DUP5 PUSH2 0xD0E JUMP JUMPDEST SWAP3 SWAP2 POP POP JUMP JUMPDEST PUSH32 0x616D6F756E743100000000000000000000000000000000000000000000000000 PUSH1 0x0 DUP3 ADD MSTORE POP JUMP JUMPDEST PUSH1 0x0 PUSH2 0xDFB PUSH1 0x7 DUP4 PUSH2 0xA1C JUMP JUMPDEST SWAP2 POP PUSH2 0xE06 DUP3 PUSH2 0xDC5 JUMP JUMPDEST PUSH1 0x20 DUP3 ADD SWAP1 POP SWAP2 SWAP1 POP JUMP JUMPDEST PUSH1 0x0 PUSH1 0x40 DUP3 ADD SWAP1 POP DUP2 DUP2 SUB PUSH1 0x0 DUP4 ADD MSTORE PUSH2 0xE2A DUP2 PUSH2 0xDEE JUMP JUMPDEST SWAP1 POP PUSH2 0xE39 PUSH1 0x20 DUP4 ADD DUP5 PUSH2 0xD0E JUMP JUMPDEST SWAP3 SWAP2 POP POP JUMP JUMPDEST PUSH32 0x6665650000000000000000000000000000000000000000000000000000000000 PUSH1 0x0 DUP3 ADD MSTORE POP JUMP JUMPDEST PUSH1 0x0 PUSH2 0xE75 PUSH1 0x3 DUP4 PUSH2 0xA1C JUMP JUMPDEST SWAP2 POP PUSH2 0xE80 DUP3 PUSH2 0xE3F JUMP JUMPDEST PUSH1 0x20 DUP3 ADD SWAP1 POP SWAP2 SWAP1 POP JUMP JUMPDEST PUSH1 0x0 PUSH1 0x40 DUP3 ADD SWAP1 POP DUP2 DUP2 SUB PUSH1 0x0 DUP4 ADD MSTORE PUSH2 0xEA4 DUP2 PUSH2 0xE68 JUMP JUMPDEST SWAP1 POP PUSH2 0xEB3 PUSH1 0x20 DUP4 ADD DUP5 PUSH2 0xD0E JUMP JUMPDEST SWAP3 SWAP2 POP POP JUMP JUMPDEST PUSH32 0x616D6F756E7420746F2072657061790000000000000000000000000000000000 PUSH1 0x0 DUP3 ADD MSTORE POP JUMP JUMPDEST PUSH1 0x0 PUSH2 0xEEF PUSH1 0xF DUP4 PUSH2 0xA1C JUMP JUMPDEST SWAP2 POP PUSH2 0xEFA DUP3 PUSH2 0xEB9 JUMP JUMPDEST PUSH1 0x20 DUP3 ADD SWAP1 POP SWAP2 SWAP1 POP JUMP JUMPDEST PUSH1 0x0 PUSH1 0x40 DUP3 ADD SWAP1 POP DUP2 DUP2 SUB PUSH1 0x0 DUP4 ADD MSTORE PUSH2 0xF1E DUP2 PUSH2 0xEE2 JUMP JUMPDEST SWAP1 POP PUSH2 0xF2D PUSH1 0x20 DUP4 ADD DUP5 PUSH2 0xD0E JUMP JUMPDEST SWAP3 SWAP2 POP POP JUMP JUMPDEST PUSH1 0x0 PUSH1 0x40 DUP3 ADD SWAP1 POP PUSH2 0xF48 PUSH1 0x0 DUP4 ADD DUP6 PUSH2 0x9E4 JUMP JUMPDEST PUSH2 0xF55 PUSH1 0x20 DUP4 ADD DUP5 PUSH2 0xD0E JUMP JUMPDEST SWAP4 SWAP3 POP POP POP JUMP JUMPDEST PUSH1 0x0 DUP2 ISZERO ISZERO SWAP1 POP SWAP2 SWAP1 POP JUMP JUMPDEST PUSH2 0xF71 DUP2 PUSH2 0xF5C JUMP JUMPDEST DUP2 EQ PUSH2 0xF7C JUMPI PUSH1 0x0 DUP1 REVERT JUMPDEST POP JUMP JUMPDEST PUSH1 0x0 DUP2 MLOAD SWAP1 POP PUSH2 0xF8E DUP2 PUSH2 0xF68 JUMP JUMPDEST SWAP3 SWAP2 POP POP JUMP JUMPDEST PUSH1 0x0 PUSH1 0x20 DUP3 DUP5 SUB SLT ISZERO PUSH2 0xFAA JUMPI PUSH2 0xFA9 PUSH2 0x7D7 JUMP JUMPDEST JUMPDEST PUSH1 0x0 PUSH2 0xFB8 DUP5 DUP3 DUP6 ADD PUSH2 0xF7F JUMP JUMPDEST SWAP2 POP POP SWAP3 SWAP2 POP POP JUMP JUMPDEST PUSH1 0x0 DUP2 MLOAD SWAP1 POP SWAP2 SWAP1 POP JUMP JUMPDEST PUSH1 0x0 DUP3 DUP3 MSTORE PUSH1 0x20 DUP3 ADD SWAP1 POP SWAP3 SWAP2 POP POP JUMP JUMPDEST PUSH1 0x0 JUMPDEST DUP4 DUP2 LT ISZERO PUSH2 0xFFB JUMPI DUP1 DUP3 ADD MLOAD DUP2 DUP5 ADD MSTORE PUSH1 0x20 DUP2 ADD SWAP1 POP PUSH2 0xFE0 JUMP JUMPDEST DUP4 DUP2 GT ISZERO PUSH2 0x100A JUMPI PUSH1 0x0 DUP5 DUP5 ADD MSTORE JUMPDEST POP POP POP POP JUMP JUMPDEST PUSH1 0x0 PUSH1 0x1F NOT PUSH1 0x1F DUP4 ADD AND SWAP1 POP SWAP2 SWAP1 POP JUMP JUMPDEST PUSH1 0x0 PUSH2 0x102C DUP3 PUSH2 0xFC1 JUMP JUMPDEST PUSH2 0x1036 DUP2 DUP6 PUSH2 0xFCC JUMP JUMPDEST SWAP4 POP PUSH2 0x1046 DUP2 DUP6 PUSH1 0x20 DUP7 ADD PUSH2 0xFDD JUMP JUMPDEST PUSH2 0x104F DUP2 PUSH2 0x1010 JUMP JUMPDEST DUP5 ADD SWAP2 POP POP SWAP3 SWAP2 POP POP JUMP JUMPDEST PUSH1 0x0 PUSH1 0x80 DUP3 ADD SWAP1 POP PUSH2 0x106F PUSH1 0x0 DUP4 ADD DUP8 PUSH2 0xD0E JUMP JUMPDEST PUSH2 0x107C PUSH1 0x20 DUP4 ADD DUP7 PUSH2 0xD0E JUMP JUMPDEST PUSH2 0x1089 PUSH1 0x40 DUP4 ADD DUP6 PUSH2 0x9E4 JUMP JUMPDEST DUP2 DUP2 SUB PUSH1 0x60 DUP4 ADD MSTORE PUSH2 0x109B DUP2 DUP5 PUSH2 0x1021 JUMP JUMPDEST SWAP1 POP SWAP6 SWAP5 POP POP POP POP POP JUMP INVALID LOG2 PUSH5 0x6970667358 0x22 SLT KECCAK256 BASEFEE BASEFEE 0xB8 0xE3 PUSH2 0x88D4 POP 0xE6 ADDRESS PUSH4 0x86134FB9 PUSH5 0xD8C7720C6C PUSH4 0x926C8F25 CALLDATALOAD PUSH19 0x41CFD5C664736F6C634300080F003300000000 "
				},
				"gasEstimates": {
					"creation": {
						"codeDepositCost": "863200",
						"executionCost": "896",
						"totalCost": "864096"
					},
					"external": {
						"testFlashSwap(address,uint256)": "infinite",
						"uniswapV2Call(address,uint256,uint256,bytes)": "infinite"
					}
				},
				"methodIdentifiers": {
					"testFlashSwap(address,uint256)": "293ccb50",
					"uniswapV2Call(address,uint256,uint256,bytes)": "10d1e85c"
				}
			},
			"storageLayout": {
				"storage": [],
				"types": null
			},
			"userdoc": {
				"kind": "user",
				"methods": {},
				"version": 1
			}
		}
	}
}